:020000040000FA
:100000000C944A030C9472030C9472030C947203C4
:100010000C9472030C9472030C9472030C9472038C
:100020000C94140B0C9472030C9472030C94580AE5
:100030000C9472030C9472030C9472030C9472036C
:100040000C94B6090C9472030C94260A0C94000AC2
:100050000C9472030C9472030C9472030C9472034C
:100060000C9472030C947203464153540057687900
:100070006E746572004D6167695175657374004CEB
:1000800065676F00426F7365576176650042616E08
:1000900067264F6C756673656E00536F6E790053FB
:1000A000686172700053616D73756E674C470053E1
:1000B000616D73756E6734380053616D73756E676B
:1000C0000052433600524335004B617365696B79CA
:1000D0006F5F4D697473756269736869004B617312
:1000E00065696B796F5F4A5643004B617365696B55
:1000F000796F5F5368617270004B617365696B79EA
:100100006F5F44656E6F6E004B617365696B796FED
:100110000050616E61736F6E6963004F6E6B796F33
:10012000004E454332004E4543004C4732004C4799
:10013000004A56430044656E6F6E004170706C65F6
:100140000050756C736544697374616E636500502B
:10015000756C7365576964746800554E4B4E4F5704
:100160004E00486173682000556E69766572736150
:100170006C2050756C73652044697374616E63659F
:100180002057696474682C20004D6167695175655A
:1001900073742C2000426F736577617665202C2084
:1001A000004C65676F20506F7765722046756E63EF
:1001B00074696F6E732C20005768796E7465722CA9
:1001C0002000464153542C200053616D73756E67B7
:1001D0002C20004A56432C20004C472C2000524330
:1001E000362C20005243352C2000536F6E792C2082
:1001F0000044656E6F6E2F53686172702C20005042
:10020000616E61736F6E69632F4B617365696B79A2
:100210006F2C20004E45432F4E4543322F4F6E6BBF
:10022000796F2F4170706C652C20006174207069AB
:100230006E203900526561647920746F20726563A5
:1002400065697665204952207369676E616C732019
:100250006F662070726F746F636F6C733A20005317
:1002600054415254202F55736572732F64616E6927
:10027000656C746F6D706B696E732F446F63756D11
:10028000656E74732F41726475696E6F2F49527475
:10029000757272657453746172746572436F6465CC
:1002A0002F495274757272657453746172746572F9
:1002B000436F64652E696E6F2066726F6D204E6F9E
:1002C0007620313720323032330D0A5573696E672C
:1002D000206C6962726172792076657273696F6EE3
:1002E00020342E322E3000496620796F75206765E4
:1002F0007420756E657870656374656420726573CB
:10030000756C74732C2074727920746F20696E631D
:10031000726561736520746865205245434F52448D
:100320005F4741505F4D4943524F5320696E20490A
:100330005272656D6F74652E682E00427574206967
:10034000742063616E206265204F4B20666F7220BF
:10035000736F6D652079657420756E737570706F3D
:10036000727465642070726F746F636F6C732C208D
:10037000616E6420657370656369616C6C79206679
:100380006F7220726570656174732E002075732022
:100390006B6E6F776E20666F7220696D706C656D25
:1003A000656E7465642070726F746F636F6C732018
:1003B0006C696B65204E45432C20536F6E792C2061
:1003C000524325206574632E2E00207573206265CC
:1003D000747765656E2074776F20646574656374E7
:1003E0006564207472616E736D697373696F6E20DA
:1003F000697320736D616C6C6572207468616E2026
:10040000746865206D696E696D616C20676170202C
:100410006F6620005370616365206F662000204C7A
:10042000534220666972737400204D5342206669FE
:1004300072737400206269747300205261772D44D6
:100440006174613D307800757300206761703D0014
:10045000526570656174004175746F2D0020546F92
:1004600067676C653D310020506172697479206660
:1004700061696C002045787472613D3078002043DA
:100480006F6D6D616E643D3078002041646472650B
:1004900073733D30780020626974732028696E633D
:1004A0006C2E2067617020616E64207374617274B9
:1004B0002920726563656976656400204861736808
:1004C0003D30780050726F746F636F6C3D004F76F3
:1004D0006572666C6F77005A014F0141013B01352F
:1004E0000131012E012A01260121011B0111010800
:1004F00001F900EA00DD00C900C500C100B900AF84
:1005000000A5009F009A008D0084007F0075006D9B
:100510000068002C20002C20002C20002C20002C17
:100520002000293B002C2030780053425F4649527E
:1005300053542C203C526570656174506572696F2C
:10054000644D696C6C69733E2C203C6E756D626500
:10055000724F66526570656174733E002C20505274
:100560004F544F434F4C5F49535F002C20002C20C9
:100570003078002C202674526177446174615B30BE
:100580005D2C20002C203C6E756D6265724F6652AA
:100590006570656174733E002C20322C20002C2085
:1005A0003078002830780020497253656E64657297
:1005B0002E73656E6400202020007D3B002C2030CF
:1005C00078002020202075696E7433325F742074A7
:1005D000526177446174615B5D3D7B3078005365A7
:1005E0006E6420776974683A00202B00202D005D2E
:1005F0003A2000726177446174615B005265636503
:1006000069766564206E6F697365206F7220616E14
:1006100020756E6B6E6F776E20286F72206E6F7410
:100620002079657420656E61626C65642920707242
:100630006F746F636F6C000000000800020100001F
:100640000304070000000000000000000000002577
:100650000028002B0000000000240027002A0000D2
:1006600000000023002600290004040404040404FC
:100670000402020202020203030303030301020451
:100680000810204080010204081020010204081014
:1006900020002F0C11241FBECFEFD8E0DEBFCDBF4E
:1006A00012E0A0E0B1E0E0E7F3E302C005900D92B4
:1006B000A033B107D9F724E0A0E3B2E001C01D9256
:1006C000AC32B207E1F713E0CAE4D3E004C02197EB
:1006D000FE010E94B019C934D107C9F70E94720CFB
:1006E0000C94B6190C940000CF93DF93809307030A
:1006F00090E09C012358394FF901449140930A033B
:100700008759994FFC014491E42FF0E0EE0FFF1F51
:10071000E15AF94F459154915093090340930803CE
:10072000F9012491FC0184918823B9F090E0880FAD
:10073000991FFC01EB5AF94FC591D491FC01E55B7F
:10074000F94FA591B4919FB7F894888120958223A1
:1007500088838C9128232C939FBFDF91CF9108959C
:10076000E0911F04F0912004238534852817390770
:1007700028F480911E04816080931E0408950F93D5
:100780001F93CF93DF93E0911F04F09120044091D9
:100790006802828510E0481708F064C0142F1170B9
:1007A0000091670201114FC0842F90E0880F991FBC
:1007B000E80FF91F0384F485E02D2CEE3FEF1123A1
:1007C00011F024E130E0C0916502D09166022C0F57
:1007D0003D1FC90163E470E00E949C19E617F7070A
:1007E00060F0C90168E270E00E949C196F5F7F4F62
:1007F00081E090E06E177F0710F52C0F3D1FC901B7
:1008000063E470E00E949C19E617F70750F0C901F5
:1008100068E270E00E949C196F5F7F4F6E177F0740
:1008200060F42C0F3D1FC90163E470E00E949C1925
:10083000E617F707E8F41FEF15C082E090E0909309
:100840006402809363020F5F0093670280916302EA
:10085000909164020817190628F0109267024F5F02
:1008600040936802812FDF91CF911F910F910895DE
:10087000C90168E270E00E949C196F5F7F4F6E179C
:100880007F07C8F283E090E0DACF90E0FC01E95CFA
:10089000F94F2491FC01E358F94F3491FC01E759D9
:1008A000F94FE491EE23C9F0222339F0233001F10E
:1008B000A8F4213019F1223029F1F0E0EE0FFF1FEA
:1008C000E55BF94FA591B4918FB7F894EC91611164
:1008D00026C030953E233C938FBF08952730A9F062
:1008E0002830C9F0243049F7809180008F7D03C003
:1008F000809180008F7780938000DFCF84B58F77E1
:1009000084BDDBCF84B58F7DFBCF8091B0008F7726
:100910008093B000D2CF8091B0008F7DF9CF3E2B75
:10092000DACF3FB7F89480915B0290915C02A0917E
:100930005D02B0915E0226B5A89B05C02F3F19F05D
:100940000196A11DB11D3FBFBA2FA92F982F88274F
:10095000BC01CD01620F711D811D911D42E0660F2A
:10096000771F881F991F4A95D1F708958F929F92FC
:10097000AF92BF92CF92DF92EF92FF924B015C0158
:100980000E9491046B017C010E9491046C197D0905
:100990008E099F09683E734081059105A8F321E007
:1009A000821A9108A108B10888EEC80E83E0D81E0B
:1009B000E11CF11C81149104A104B10429F7FF90FA
:1009C000EF90DF90CF90BF90AF909F908F90089561
:1009D000AF92BF92CF92DF92EF92FF920F931F934D
:1009E000CF93DF936C017B018B01040F151FEB018B
:1009F0005E01AE18BF08C017D10759F06991D60142
:100A0000ED91FC910190F081E02DC6010995892BB3
:100A100079F7C501DF91CF911F910F91FF90EF9072
:100A2000DF90CF90BF90AF900895FC01538D448D1F
:100A3000252F30E0842F90E0821B930B541710F089
:100A4000CF96089501970895FC01918D828D981796
:100A500061F0A28DAE0FBF2FB11D5D968C91928D6E
:100A60009F5F9F73928F90E008958FEF9FEF08959F
:100A7000FC01918D828D981731F0828DE80FF11D68
:100A8000858D90E008958FEF9FEF0895FC01918D83
:100A9000228D892F90E0805C9F4F821B91098F737C
:100AA0009927089589E692E00E94460521E0892B66
:100AB00009F420E0822F089580E090E0892B29F04E
:100AC0000E94520581110C9400000895FC01A48D30
:100AD000A80FB92FB11DA35ABF4F2C91848D90E060
:100AE00001968F739927848FA689B7892C93A08943
:100AF000B1898C91837080648C93938D848D9813CD
:100B000006C00288F389E02D80818F7D808308955F
:100B1000EF92FF920F931F93CF93DF93EC0181E04D
:100B2000888F9B8D8C8D98131AC0E889F9898081F4
:100B300085FF15C09FB7F894EE89FF896083E88927
:100B4000F98980818370806480839FBF81E090E019
:100B5000DF91CF911F910F91FF90EF900895F62EA6
:100B60000B8D10E00F5F1F4F0F731127E02E8C8D40
:100B70008E110CC00FB607FCFACFE889F989808185
:100B800085FFF5CFCE010E946605F1CFEB8DEC0F0E
:100B9000FD2FF11DE35AFF4FF0829FB7F8940B8FA2
:100BA000EA89FB8980818062CFCF0F931F93CF9317
:100BB000DF938C01D0E0C0E0F801EC0FFD1F6491E1
:100BC000662341F089E692E00E948805892B11F0A6
:100BD0002196F2CFCE01DF91CF911F910F91089511
:100BE000682F89E692E00C948805CF93DF93EC019F
:100BF000888D8823B9F0AA89BB89E889F9898C9105
:100C000085FD03C0808186FD0DC00FB607FCF7CFC0
:100C10008C9185FFF2CF808185FFEDCFCE010E94C0
:100C20006605E9CFDF91CF910895CF92DF92EF92E1
:100C3000FF92CF93DF93EC01603282E07807CCF52E
:100C4000653B710514F064EB70E0898128E830E0C1
:100C5000281B310987FD3395220F331F220F331FC5
:100C60006901330FEE08FF088A8128E532E0281B6E
:100C7000310987FD3395220F331F220F331F032EB7
:100C8000000C440B550B2C193D094E095F09DB0183
:100C900077FF02C0B0E0A0E00E94791924EB30E0B9
:100CA00040E050E00E944F19C20ED31EE41EF51E14
:100CB000B601E881EC3070F5298188E890E0821B6C
:100CC000910927FD9395880F991F880F991F681721
:100CD00079077CF02A8188E592E0821B910927FD43
:100CE0009395880F991F880F991F681779070CF43F
:100CF000CB010297880F991F4FB7F8942E2F30E041
:100D0000F901EE0FFF1FE20FF31FEE5CFD4F928320
:100D100081834FBFDF91CF91FF90EF90DF90CF9015
:100D20000895CF93DF93DC018C918C3008F06DC077
:100D3000CB01FB01E358F94F24918759994FFC01EE
:100D40008491882399F090E0880F991FFC01EB5A59
:100D5000F94FC591D491FC01E55BF94F85919491D0
:100D60008FB7F894E881E22BE8838FBF8C91282F0E
:100D700030E0F901EE0FFF1FE20FF31FEE5CFD4FB5
:100D8000962F9F736081607C692B608311961C9203
:100D9000119712961C9212972CE0622F0E949019C4
:100DA000829FB001112430E020E0AB01420F531FBD
:100DB000FA01EE0FFF1FE40FF51FEE5CFD4F90816F
:100DC00096FD16C02F5F3F4F2C30310571F7811112
:100DD0000FC01092800082E0809381001092850005
:100DE00010928400B19A80916F00826080936F00AE
:100DF000EC918E2F90E0FC01EE0FFF1FE80FF91F22
:100E0000EE5CFD4F8081806480838C91DF91CF9177
:100E100008958F929F92AF92BF92CF92DF92EF92FE
:100E2000FF924B015C010E9491046B017C0124E064
:100E3000C21AD108E108F1080E9491046C197D09D9
:100E40008E099F09681579058A059B05A8F3FF900F
:100E5000EF90DF90CF90BF90AF909F908F900895CC
:100E6000FC019B0124513109C90163E470E00E9437
:100E70009C19E617F70758F0C90168E270E00E9474
:100E80009C196F5F7F4F81E06E177F0708F480E049
:100E900008952F923F924F925F926F927F928F921E
:100EA0009F92AF92BF92CF92DF92EF92FF920F93F9
:100EB0001F93CF93DF9300D000D000D0CDB7DEB723
:100EC000382E6D835A013C832B8348012E2C9A01C6
:100ED0002C5E3F4FC90163E470E00E949C198B01B6
:100EE000C90168E270E00E949C199B012F5F3F4F8F
:100EF0003A8329835D81452F50E0440F551F455F9C
:100F00005F4F80911F0490912004480F591F5E830A
:100F10004D83412C512C32014394C12CD12C7601AC
:100F20003320B9F18B819C81A816B906E1F4B40194
:100F3000ED81FE81828193810E943007222011F190
:100F4000CC0CDD1CEE1CFF1C882311F06894C0F84B
:100F5000440C551C661C771C3A948D819E81049626
:100F60009E838D83DDCFED81FE812081318120172D
:100F7000310730F081E049815A8142175307F0F67A
:100F800080E0DCCF882321F3C428D528E628F72881
:100F9000DFCFC0920404D0920504E0920604F092E0
:100FA000070481E026960FB6F894DEBF0FBECDBFD2
:100FB000DF91CF911F910F91FF90EF90DF90CF9035
:100FC000BF90AF909F908F907F906F905F904F9069
:100FD0003F902F900895EF920F931F93FC01862F5F
:100FE000642FEE24E3949785911101C0E12C0185D3
:100FF000128523853485478150850E9449071F91BA
:101000000F91EF9008950F931F93CF93DF93EC010F
:10101000E0911F04F0912004058516852B813C8109
:101020002C5E3F4FC90163E470E00E949C190617D3
:101030001707A0F0C90168E270E00E949C196F5F79
:101040007F4F6017710750F06D817E818785908991
:10105000DF91CF911F910F910C94300780E0DF91C9
:10106000CF911F910F910895FC0101900020E9F7A5
:101070003197AF01481B590BBC0189E692E00C94F3
:10108000E8048F929F92AF92BF920F931F93CF93DA
:10109000DF93CDB7DEB7A1970FB6F894DEBF0FBED2
:1010A000CDBF19A2423008F44AE08E010F5D1F4FF8
:1010B000842E912CB12CA12CA50194010E942D19F4
:1010C000E62FB901CA01EA30F4F4E05DD801EE93ED
:1010D0008D01232B242B252B79F790E080E01097AE
:1010E00019F0CD010E943408A1960FB6F894DEBF26
:1010F0000FBECDBFDF91CF911F910F91BF90AF90E9
:101100009F908F900895E95CE1CF462FBC0190E05D
:1011100080E00C94410884E092E00C943408CF9372
:10112000DF930E94D505EC010E948B088C0F9D1F58
:10113000DF91CF910895CF92DF92EF92FF92CF93FC
:10114000DF936C01990FEE08FF08F7FE17C08DE2E0
:101150000E94F005EC0166277727CB016C197D0909
:101160008E099F094AE00E9441088C0F9D1FDF9164
:10117000CF91FF90EF90DF90CF9008954AE0C701A4
:10118000B601DF91CF91FF90EF90DF90CF900C945C
:1011900041088091FA03882319F060E00C9445041B
:1011A0002D980895882349F08091FA03882319F037
:1011B00061E00C9445042D9A08950C94C9084F924F
:1011C0005F926F927F928F929F92AF92BF92CF92D7
:1011D000DF92EF92FF92CF93DF93CDB7DEB72C97DC
:1011E0000FB6F894DEBF0FBECDBF7C010E94910404
:1011F00069837A838B839C834B015C0120E0B0E0A0
:10120000A0E0A701BD0145525109610971094D8353
:101210005E836F837887A701BD014750510961093B
:10122000710949875A876B877C87F8945B9A80910C
:101230006102909162028230910538F0880F991F07
:10124000880F991F05970197F1F75B987894211102
:1012500007C08091FB03823019F481E00E94D2081C
:1012600080915F0290916002880E991EA11CB11CB2
:10127000F8940E9491042B013C016B0169817A81F1
:10128000C61AD70AF12CE12C8D819E81AF81B885D9
:10129000C816D906EA06FB0634F08091FB038230BB
:1012A00011F40E94C90849855A856B857C85C4164E
:1012B000D506E606F706B4F078942C960FB6F894A7
:1012C000DEBF0FBECDBFDF91CF91FF90EF90DF90DB
:1012D000CF90BF90AF909F908F907F906F905F90D6
:1012E0004F90089521E0481459046A047B0408F4DF
:1012F000C0CF9BCFEFE5F2E08AE190E0918380835D
:1013000088E090E093838283539A80E891E10E9481
:10131000DF0860E871E180E090E00E94090780E367
:1013200092E00E94DF0860E372E080E090E00E94BB
:10133000090780E392E00C94DF08EFE5F2E08AE130
:1013400090E09183808388E090E093838283539A36
:1013500080E093E20E94DF0860EC78E080E090E0BB
:101360000E94090780E392E00C94DF081F920F921D
:101370000FB60F9211242F933F938F939F93AF93A8
:10138000BF938091570290915802A0915902B09159
:101390005A023091560223E0230F2D3758F501965B
:1013A000A11DB11D209356028093570290935802BD
:1013B000A0935902B0935A0280915B0290915C0213
:1013C000A0915D02B0915E020196A11DB11D8093B6
:1013D0005B0290935C02A0935D02B0935E02BF91AA
:1013E000AF919F918F913F912F910F900FBE0F90D2
:1013F0001F90189526E8230F0296A11DB11DD2CF8C
:101400001F920F920FB60F9211242F933F934F9379
:101410005F936F937F938F939F93AF93BF93EF935C
:10142000FF9389E692E00E946605FF91EF91BF91DC
:10143000AF919F918F917F916F915F914F913F916C
:101440002F910F900FBE0F901F9018951F920F9223
:101450000FB60F9211242F938F939F93EF93FF93C7
:10146000E0917902F0917A028081E0917F02F0911F
:10147000800282FD1BC09081809182028F5F8F73FA
:1014800020918302821741F0E0918202F0E0E75957
:10149000FD4F958F80938202FF91EF919F918F91E5
:1014A0002F910F900FBE0F901F9018958081F4CF51
:1014B0001F920F920FB60F9211242F933F934F93C9
:1014C0005F936F937F938F939F93AF93BF93CF93CC
:1014D000DF93EF93FF9380913002C0913102D0E00F
:1014E00087FF24C010928500109284008091300202
:1014F0008F5F8093300280913002082E000C990B90
:101500008C179D0724F4809130028C30C4F18091B7
:10151000840090918500049680349C4908F47AC038
:101520008091840090918500049676C0809130026D
:10153000082E000C990B8C179D07C4F6E091300221
:101540008E2FEE0F990BFC01EE0FFF1FE80FF91F16
:10155000EE5CFD4F808186FFC9CFE09130028E2F77
:10156000EE0F990BFC01EE0FFF1FE80FF91FEE5C69
:10157000FD4F808160E08F730E944504B7CF2091BA
:10158000840030918500E09130028E2FEE0F990B90
:10159000FC01EE0FFF1FE80FF91FEE5CFD4F81818C
:1015A0009281820F931F9093890080938800E0912D
:1015B00030028E2FEE0F990BFC01EE0FFF1FE80F8C
:1015C000F91FEE5CFD4F808186FF11C0E091300273
:1015D0008E2FEE0F990BFC01EE0FFF1FE80FF91F86
:1015E000EE5CFD4F808161E08F730E944504FF91A6
:1015F000EF91DF91CF91BF91AF919F918F917F91AB
:101600006F915F914F913F912F910F900FBE0F906F
:101610001F90189580E49CE990938900809388003E
:101620008FEF80933002E3CF1F920F920FB60F928D
:1016300011242F933F934F935F936F937F938F93D7
:101640009F93AF93BF93CF93EF93FF93E0910803E2
:10165000F0910903C08180910A03C82380910B0394
:1016600090910C03019649F080910B0390910C032B
:10167000019690930C0380930B03809106038111D4
:101680001DC0C1116EC080910B0390910C03853673
:10169000910578F010920F0380910B0390910C0349
:1016A000909312038093110381E080931003809341
:1016B000060310920C0310920B0353C08091060393
:1016C0008130A9F4CC2309F44CC0E09110038E0FB3
:1016D0008093100380910B0390910C03F0E0EE0FC8
:1016E000FF1FEA5FFC4F9487838782E0E0CF809101
:1016F0000603823009F04FC0C11122C0E0911003EF
:1017000081E0E03768F080930F0383E08093060365
:10171000E0910D03F0910E03309759F20995C9CF6E
:101720008E0F8093100380910B0390910C03F0E0D7
:10173000EE0FFF1FEA5FFC4F9487838781E0B7CFEE
:1017400080910B0390910C038536910550F083E056
:1017500080930603E0910D03F0910E03309709F09A
:1017600009958091FB03813021F4C11180E00E9432
:10177000D208FF91EF91CF91BF91AF919F918F913F
:101780007F916F915F914F913F912F910F900FBE7D
:101790000F901F90189580910603833011F7C111A7
:1017A000E0CF87CFEF92FF920F931F93CF93DF93FA
:1017B000EC01F62F8A01790190E080E030E0E0E072
:1017C000DE01AE0FB11D2C91222341F0320F2E9F6E
:1017D000800D911D11241C92FE1315C0332399F026
:1017E000532F5695850F911D632F70E00E949C1911
:1017F000DE01A60FB11D3C93D8013C9131110EC002
:101800006C9390E080E0EF5FFE17D0F681E0DF910F
:10181000CF911F910F91FF90EF900895D7013C91C8
:10182000332371F380E0F3CFFC01909131029C30BF
:1018300098F481E0890F809331029083892F90E0A2
:10184000FC01EE0FFF1FE80FF91FEE5CFD4F88EB68
:101850009BE09283818308958FEF80830895E9E66A
:10186000F2E01382128288EE93E0A0E0B0E084837D
:101870009583A683B78386EF91E09183808385EC7F
:1018800090E09587848784EC90E09787868780EC4A
:1018900090E0918B808B81EC90E0938B828B82EC3B
:1018A00090E0958B848B86EC90E0978B868B118EE5
:1018B000128E138E148E86E093E090932004809312
:1018C0001F0480E00E9474031092FA0387EF93E0F4
:1018D0000E94140C84EF93E00E94140C81EF93E0BB
:1018E0000C94140CCF93DF93CDB7DEB7E7970FB608
:1018F000F894DEBF0FBECDBF789484B5826084BDFE
:1019000084B5816084BD85B5826085BD85B5816003
:1019100085BD80916E00816080936E001092810081
:10192000809181008260809381008091810081603C
:1019300080938100809180008160809380008091FD
:10194000B10084608093B1008091B0008160809389
:10195000B00080917A00846080937A0080917A0050
:10196000826080937A0080917A00816080937A000F
:1019700080917A00806880937A001092C100E09193
:101980007902F0917A0212E01083E0917502F091F1
:1019900076021082E0917702F09178028FEC8083DA
:1019A00010928102E0917D02F0917E0286E08083B8
:1019B000E0917B02F0917C02808180618083E091E4
:1019C0007B02F0917C02808188608083E0917B02C1
:1019D000F0917C02808180688083E0917B02F091AD
:1019E0007C0280818F7D80836AE070E087EF93E0E6
:1019F0000E9491066BE070E084EF93E00E949106F4
:101A00006CE070E081EF93E00E9491068FE592E038
:101A10000E948F0889E00E9474031092FA0380915B
:101A2000FB0381608093FB03259A1093B000109311
:101A3000B10084E68093B3008093B4001092B200AA
:101A400080910603833011F41092060384E08093A2
:101A5000700084E392E00E94D50584E192E00E9448
:101A6000D5058FEF91E00E94D50581EF91E00E94AE
:101A7000D5058AEE91E00E94D50584EE91E00E94A2
:101A8000D5058EED91E00E94D50589ED91E00E948B
:101A9000D50583ED91E00E94D50589EC91E00E9487
:101AA000D50582EC91E00E94D50588EB91E00E947B
:101AB000D50581EA91E00E94D50585E991E00E9473
:101AC000D50589E891E00E94D50588E691E00E945D
:101AD000D50582E691E00E94D5058BE292E00E9456
:101AE0008F086AE570E087EF93E00E94150664E1D5
:101AF00070E080E090E00E94B6046AE570E081EF5B
:101B000093E00E94150664E670E080E090E00E9499
:101B1000B60464E670E084EF93E00E94150664E684
:101B200070E080E090E00E94B60484E690E090933C
:101B3000F1018093F0019E012F5F3F4F19018091C9
:101B40000603833011F00C94971880910F038823BB
:101B500009F458C080E480931E041092FD03109293
:101B6000FC0310920104109200041092FF031092E3
:101B7000FE031092040410920504109206041092C1
:101B8000070410921D0410921C0480911E0486FD0F
:101B9000D2C1E0911F04F09120042285822F8F7B17
:101BA000843009F0BBC085859685865891098C35AF
:101BB000910508F0B3C087859089243009F049C0A9
:101BC0008197489708F0AAC0818992890897089759
:101BD00008F0A4C081E080931E04809123049091BA
:101BE00024049093FF038093FE0380912704909137
:101BF0002804909301048093000480912104909123
:101C0000220464C010921E048091FC039091FD0395
:101C10009093220480932104809100049091010408
:101C2000B0E0A0E08093270490932804A0932904B7
:101C3000B0932A048091FE039091FF03B0E0A0E0EE
:101C40008093230490932404A0932504B093260446
:101C500084CF825491098F9708F060C043E060E21E
:101C60008CED91E00E94EB07882309F457C0209186
:101C70000404909105046091060480910704462FA6
:101C800050E05093010440930004422F592F4E3EE0
:101C900037E8530701F523E030E03093FD0320934C
:101CA000FC0390E09093FF038093FE0380E290E0BA
:101CB00090931D0480931C048AE795E00E94B00372
:101CC00080911E0480FF33C189E090E09093FD0372
:101CD0008093FC032CC19095291310C030E0309301
:101CE000FF032093FE03982F909569130CC088E0A2
:101CF00090E09093FD038093FC03D8CF5093FF03B3
:101D00004093FE03F0CF2AE030E03093FD032093B0
:101D1000FC036093000480930104C8CFE0911F048A
:101D2000F09120048285843609F08FC088EC91E020
:101D30000E940308882309F488C043E060E188EC2E
:101D400091E00E94EB07882309F47FC0D09004043F
:101D50000D2D10910504BBE0EB2EF12C023050E26A
:101D60001507F9F0AEE0EA2EF12C0A3A8AE51807D9
:101D7000C1F0FDE0EF2EF12C043592E3190789F054
:101D8000EFE0EE2EF12C0330E1E01E0751F080E190
:101D9000E82EF12C0332FBEC1F0719F07CE0E72E54
:101DA000F12C43E260E288EC91E00E94EB0788238B
:101DB00009F44BC0D1268091040490910504A091B0
:101DC0000604B09107049C0164E0369527956A9556
:101DD000E1F73093FF032093FE032A2F30E0309386
:101DE000010420930004382F3A2739272D2D2295FE
:101DF0002F702D252F70482F4F70241719F024E0D5
:101E000020931E042CE0E216F10449F420911E04F4
:101E1000206120931E0410930304009302043B17D7
:101E200029F080911E04846080931E0480E390E07A
:101E300090931D0480931C04F092FD03E092FC0338
:101E40008AE397E00E94B00372C0E0911F04F09112
:101E500020048285803209F00AC241E06FE084EB01
:101E600091E00E94EB07882309F401C2E0911F046E
:101E7000F0912004DF01A75BBF4F8D919C910497E7
:101E8000059708F0F4C18091040490910504A09195
:101E90000604B09107049C012F7133273093FF0390
:101EA0002093FE0355E0B695A795979587955A958B
:101EB000D1F7492F43709C013327309301042093BD
:101EC0000004238534852536344008F0C8C12091AC
:101ED0002B042F5F20932B04223018F021E0209355
:101EE0001E0490FF14C020911E04322F32603093E4
:101EF0001E0430912704509128048095831719F00F
:101F0000266020931E043093000450930104415036
:101F1000423008F0A9C186E190E09093FD038093E0
:101F2000FC038FE090E090931D0480931C0480914B
:101F30001E0486FF69C78EEC94E00E948F08809192
:101F4000FC039091FD030097A1F1039794F5E091B4
:101F50001F04F0912004838594858C32914048F5CC
:101F60000E948B0884E194E00E94D505E0911F0453
:101F7000F091200423853485A2E3B0E00E9481190A
:101F80004AE00E9441088AEC93E00E94D50588E966
:101F90009AE30E949B088CE893E00E948F088BE3F1
:101FA00093E00E948F0887EE92E00E948F080E94C3
:101FB0008B088091FC039091FD03892B09F4B5C037
:101FC00080911E04837009F0B0C08EED95E00E94F0
:101FD000D5058091FC039091FD030197B12C0297E8
:101FE000F0F580911C0490911D04019775E0969581
:101FF00087957A95E1F7BB24B394B80E21E02B15B1
:1020000070F50E948B0882EC95E00E94D50564E192
:10201000E62E64E0F62E10E000E08B2D8150990B47
:102020006C01F70161917191819191917F0140E182
:102030000E944108C016D10621F08DEB95E00E9468
:10204000D5050F5F1F4F0B1560F38AEB95E00E94DB
:102050008F0886EB95E00E94D50552E0B52E87EA01
:1020600095E00E94D505E091FC03F091FD03CF01BE
:102070000197029708F4ADC7EE0FFF1FE952FB4F1F
:10208000859194910E94D50583EA95E00E94D5053B
:102090008091FC039091FD034B9709F08CC76091F0
:1020A000040470910504809106049091070440E1B6
:1020B0000E9441088EE995E00E94D50560E170E03C
:1020C00080910004909101040E9485088091FC0396
:1020D0009091FD03479709F077C788E995E00E9442
:1020E000D5056AE070E080911C0490911D040E9467
:1020F000850880911E0484FF12C08091FC0390919A
:10210000FD030C9761F485E295E00E94D50560E13E
:1021100070E080910204909103040E94850882E29D
:1021200095E00E94D5050E948B088091FC03909158
:10213000FD03892B09F0E3C78CEF95E00E948F081F
:10214000E0911F04F0912004928483EF95E00E94B7
:10215000D505692D70E090E080E04AE00E944108DA
:102160008FEE95E00E948F088CEE95E00E94D505D9
:10217000E0911F04F091200423853485A2E3B0E0B0
:102180000E9481194AE00E9441080E948B088091B8
:10219000FC039091FD038430910539F0863191055F
:1021A00021F036E0E32E4B9709F4E12C01E010E03A
:1021B000D12CC12CA92CB12CF02E091508F08FC7F9
:1021C000E0911F04F0912004C801880F991FE80FC7
:1021D000F91F438554859A01A2E3B0E00E9481195A
:1021E0002B013C01C40ED51E302F3170832E00FD13
:1021F00071C78DE20E94F00558EE451653E0550672
:1022000061047104ACF480E20E94F00584E6481693
:1022100051046104710464F480E20E94F0059AE0C4
:1022200049165104610471041CF480E20E94F00517
:102230004AE0C301B2010E9441080F5F1F4F88208E
:1022400031F00A151B051CF48CE20E94F0058F2D5D
:102250008E0D877009F0B0CF0E948B08ADCF109221
:102260002B04423009F457CE84E090E056CE80EA49
:1022700091E00E940308882309F44EC0E0911F04F6
:10228000F091200482858A3129F08A3219F0803257
:1022900009F042C090E0BC016150710977FDBC01BA
:1022A0007595679543E080EA91E00E94EB078823EB
:1022B00099F18091040490910504A0910604B091D5
:1022C00007049C012F7733273093010420930004E7
:1022D00037E0B695A795979587953A95D1F790935E
:1022E000FF038093FE03E0911F04F09120042285F8
:1022F00030E0C901019797FDC901959587959093A5
:102300001D0480931C0487E190E09093FD0380936B
:10231000FC0380EE91E096CD81E08093680289E72E
:1023200093E09093660280936502109267020E9488
:10233000BF03813009F063C0C12CD12C760110E0BD
:10234000E0911F04F0912004928580916802891722
:10235000E0F40E94BF03082F0E94BF0301110BC0CD
:10236000813009F04CC0CC0CDD1CEE1CFF1C6894C5
:10237000C0F81F5FE5CF013009F041C081113FC0B7
:10238000CC0CDD1CEE1CFF1CF4CF812F90E0909351
:102390001D0480931C04C0920404D0920504E092B2
:1023A0000604F09207048C2D8F7390E09093010443
:1023B00080930004960116E0369527951A95E1F76B
:1023C0002F7133273093FF032093FE0396012227BA
:1023D0003071232B31F4805C9F4F909301048093E4
:1023E000000480E8D3FC88E880931E0481E190E03B
:1023F0009093FD038093FC038FEC99E023CDE09153
:102400001F04F09120048585968588974D9708F0E4
:1024100046C0878590890C970B9708F040C083E0F1
:10242000809368028CEB91E0909366028093650242
:10243000109267020E94BF03813089F50E94BF039A
:1024400081112DC0C12CD12C760110E0E0911F0428
:10245000F0912004928580916802891708F082C06B
:102460000E94BF03B82E1330B1F00E94BF03082FA3
:10247000133021F40E94BF03081311C091E0B91278
:1024800067C001110CC0CC0CDD1CEE1CFF1C689455
:10249000C0F81F5FDBCF0E94BF03B81631F3E09195
:1024A0001F04F091200422852C3311F0243099F47C
:1024B000858596858638910570F0833E910508F4F0
:1024C00097C08E58910968EB7BE007E010E08236F8
:1024D000910508F491C0E0911F04F09120048285D9
:1024E000823209F4EEC0843209F015C184E191E032
:1024F0000E940308882309F40EC143E060E184E1EF
:1025000091E00E94EB07882309F405C1809104043F
:1025100090910504A0910604B0910704492F5A2F09
:102520006B2F7727509301044093000499279093D1
:10253000FF038093FE0380E190E090931D0480935D
:102540001C04E5E0F0E0F093FD03E093FC03EFCC26
:10255000B110A5CF013009F0A2CFCC0CDD1CEE1CD0
:10256000FF1C97CF812F90E090931D0480931C0453
:10257000C0920404D0920504E0920604F09207048D
:102580002C2D30E08D2D143200F580E880931E0450
:1025900030930104209300048D2D90E09093FF036D
:1025A0008093FE03E0FE03C088E880931E0415318B
:1025B00028F080911E04806180931E0483E79AE0D6
:1025C0000E94B00382E190E081CB90E890931E04DA
:1025D000D7FE03C098E890931E0430930104209323
:1025E00000048F7790E09093FF038093FE03E6CF83
:1025F00068E670E106E010E087859089243061F498
:102600004D97469708F067CF818992890797089779
:1026100008F061CF81E8DFCA0E943007882309F4FF
:102620005ACF43E06CE180E091E00E94EB07882301
:1026300009F451CF80E880931E04809104049091A6
:102640000504A0910604B0910704AC01BD01E4E0CB
:102650007695679557954795EA95D1F79A015093E6
:10266000010440930004AC01BD01F4E17695679547
:1026700057954795FA95D1F75093FF034093FE0382
:1026800044E050E060E0722F7F70670F74E0369591
:1026900027957A95E1F741505109A9F786278F7060
:1026A0009927AA27BB27892B8A2B8B2B19F084E823
:1026B00080931E041093FD030093FC038CE190E0D3
:1026C00032CC838594858C3E9C4508F030CC858542
:1026D00096850897079708F02ACCE35BFF4F808127
:1026E00091810897079708F022CC81E080931E041F
:1026F00080912304909124049093FF038093FE0320
:102700008091270490912804909301048093000401
:1027100085E090E0DBCAE0911F04F091200412856F
:10272000812F8F7D843419F0163009F07EC088E245
:1027300091E00E940308882309F477C01630B1F4B1
:1027400081E080931E04809123049091240490934F
:10275000FF038093FE0380912704909128049093B7
:1027600001048093000485E190E0B0CA43E060E298
:1027700088E291E00E94EB07882309F456C010918B
:10278000060400910704909104048091050490933D
:10279000FE038093FF03E0911F04F09120048285E3
:1027A000843651F543E460E188E291E00E94EB0752
:1027B0008823D9F1809104049091050400951017A5
:1027C00031F09095981719F094E090931E04982F8B
:1027D000812F909301048093000480E390E0909314
:1027E0001D0480931C0484E190E09093FD0380938A
:1027F000FC038FE595E026CB802F809518130FC042
:10280000812F90E0909301048093000480E290E097
:1028100090931D0480931C0483E190E0E6CFC801EF
:102820009093000480930104F1CFE0911F04F09194
:1028300020048285843279F58CE391E00E940308BC
:10284000882349F143E060E18CE391E00E94EB07CB
:10285000882309F1109104048091050480951817CC
:1028600019F084E080931E048DE692E00E94B0038C
:10287000812F90E090930104809300041092FF0355
:102880001092FE0380E190E090931D0480931C045D
:102890008DE190E01BCAE0911F04F0912004828535
:1028A0008434D1F480E591E00E9403088823A1F0EC
:1028B00043E060E280E591E00E94EB07882361F04D
:1028C00080E880931E0480E290E090931D04809342
:1028D0001C048CE190E0FAC984E691E00E940308B0
:1028E000E0911F04F09120049285882309F455C0DB
:1028F000943209F052C043E060E184E691E00E9426
:10290000EB07882309F449C0E0911F04F0912004EB
:10291000DF01AF5ABF4F8D919C9102970497E8F564
:1029200080E880931E043091040420910504832FD5
:10293000922F422F42954F702F70A4E09695879565
:10294000AA95E1F78F703F709FE094279227982710
:10295000391719F094E890931E0490911E04638532
:102960007485683F714118F4926090931E044093FF
:10297000FE031092FF0350E1259F90011124282BA4
:10298000309301042093000480E190E090931D04B3
:1029900080931C048AE190E099C988E791E00E9445
:1029A0000308E0911F04F09120049285882381F1AF
:1029B000943271F543E060E188E791E00E94EB0713
:1029C000882331F1E0911F04F0912004EF5AFF4F6A
:1029D0008081918108970797D8F4809104049091A1
:1029E000050498279F3FA1F490E090930104809301
:1029F000000480E190E090931D0480931C0489E121
:102A000090E09093FD038093FC0388ED94E01ACA54
:102A1000E0911F04F09120048285803709F059C0AD
:102A200041E068E08CE891E00E94EB07882309F41C
:102A300050C08091040490910504A0910604B091C7
:102A40000704892B8A2B8B2B09F043C041E16FE1EE
:102A50008CE891E00E94EB078823D9F1C090040430
:102A6000D0900504E0900604F09007044FE461E183
:102A70008CE891E00E94EB07882359F190910504BE
:102A800080910604892798278927909301048093D1
:102A90000004C0920404D0920504E0920604F0926F
:102AA0000704D092FF03C092FE03F0920304E09269
:102AB00002048BE190E09093FD038093FC0388E394
:102AC00090E090931D0480931C0480E880931E0482
:102AD0002ECAA0911F04B09120041A968C911A97C7
:102AE000843108F429C182E3F10111928A95E9F752
:102AF0001A962C911A972250330B60E043E0842FF2
:102B000090E082179307BCF4880F991FFD01E80F2E
:102B1000F91F838594858233910508F00DC1F10179
:102B2000E80FF91F50815F5F50836817190608F49A
:102B3000682F4E5FE4CF1EAA1DAA9E012B5C3F4F5B
:102B4000AE014A5C5F4FC1010E94D20B882309F499
:102B5000F3C082E3F10111928A95E9F7A0911F0475
:102B6000B09120041A962C911A972250330B60E0F2
:102B700044E0842F90E082179307BCF4880F991FDC
:102B8000FD01E80FF91F838594858233910508F0D4
:102B9000D3C0F101E80FF91F50815F5F50836817C0
:102BA000190608F4682F4E5FE4CF1CAA1BAA9E01E9
:102BB0002D5C3F4FAE014C5C5F4FC1010E94D20BB8
:102BC000882309F4B9C0E0911F04F09120048285A4
:102BD00086958150990BCBA88DA89C012150310975
:102BE000CC2019F0811001C0C90190931D0480937D
:102BF0001C049C012150310945E0369527954A95E2
:102C0000E1F72FAB811003C0CC2009F495C06CA86C
:102C100092E3699E30011124AEA8A99E50011124AF
:102C2000899E40011124C99E60011124F82E93E071
:102C3000492E512C8F2DF0E2FF1508F480E29DA95A
:102C4000992309F465C021E030E03093FD0320931F
:102C5000FC03E12C83019501A401642D0E94490726
:102C6000882309F469C024E0529EF0011124EC5E2F
:102C7000FB4F8091040490910504A0910604B0914B
:102C8000070480839183A283B38330E4430E53947B
:102C900050EEF50E8FA9851568F680ED97E00E943D
:102CA000B003E0911F04F09120044585568582E32E
:102CB000849F9001859F300D112430930904209347
:102CC000080447855089849F9001859F300D112409
:102CD00030930B0420930A04B0921104A0921004C4
:102CE000709213046092120481149104E1F09092A6
:102CF0000D0480920C0470920F0460920E04C114B3
:102D0000D10409F414C9D0921304C09212040FC95B
:102D1000E2E0F0E0F093FD03E093FC03E12C860198
:102D20009501A5019ACFB0920D04A0920C04D09207
:102D30000F04C0920E04FBC8E0901F04F090200422
:102D4000F7010285063008F4F2C8DD24D39425EC9F
:102D50003DE94CE151E810E08AE0C82E8D2D90E06D
:102D6000BC016E5F7F4F60177107DCF5660F771F40
:102D7000F701E60FF71F63857485880F991FF70128
:102D8000E80FF91F83859485C69ED001C79EB00DBC
:102D90001124FC01EE0FFF1FEE0FFF1FEE0FFF1FB0
:102DA000AE17BF07D0F0C89EF001C99EF00D1124E8
:102DB000CB01B3E0880F991FBA95E1F7E817F9073F
:102DC00070F4E2E063E971E080E091E00E941D1997
:102DD0009B01AC012E27D394C1CFE0E0F3CFE1E01B
:102DE000F1CF2093040430930504409306045093DC
:102DF000070480E290E090931D0480931C041092DD
:102E0000FD031092FC0393C884EC94E00E94D50566
:102E1000E091FC03F091FD03EE0FFF1FE952FB4F21
:102E2000859194910E94D5058091FC039091FD03BA
:102E3000009701F58BEB94E00E94D50560910404A6
:102E400070910504809106049091070440E10E946E
:102E5000410880E20E94F005E0911F04F0912004F7
:102E6000828590E00196969587950E949B0886E959
:102E700094E063C801970297C0F18AE894E00E9449
:102E8000D50560E170E08091FE039091FF030E9400
:102E900085088EE794E00E94D50560E170E080919E
:102EA0000004909101040E94850880911E0484FF13
:102EB0000CC084E794E00E94D50560E170E0809149
:102EC0000204909103040E94850880911E0482FFF1
:102ED00004C087E694E00E94D50580911E0483FF1C
:102EE00004C08DE594E00E94D50580911E04837096
:102EF00021F180E20E94F00580911E0481FF04C050
:102F000087E594E00E94D50580E594E00E94D50510
:102F10008AE494E00E94D505E0911F04F09120041A
:102F200023853485A2E3B0E00E9481194AE00E9423
:102F3000410887E494E00E94D50580911E0480FF3B
:102F40000CC08091040490910504A0910604B091F6
:102F50000704892B8A2B8B2B51F18AE394E00E9482
:102F6000D505609104047091050480910604909148
:102F7000070440E10E94410880E20E94F0056AE0F7
:102F800070E080911C0490911D040E94850884E3E8
:102F900094E00E94D50580911E0487FF04C089E259
:102FA00094E00C949D0F8EE194E00C949D0F0E9490
:102FB0008B080C949F0F60E170E08091FE0390916C
:102FC000FF030E94850876C884E895E00E94D50535
:102FD00090C887E092E00E943408F2E08AE192E033
:102FE000BF1611F083E292E00E9434086AE070E0BC
:102FF00080910804909109040E9485088FE195E072
:103000000E94D5056AE070E080910A0490910B045B
:103010000E9485088CE195E00E94D5056AE070E089
:1030200080910C0490910D040E94850889E195E03F
:103030000E94D5056AE070E080910E0490910F0423
:103040000E94850886E195E00E94D5056AE070E05F
:1030500080911004909111040E94850883E195E00D
:103060000E94D5056AE070E08091120490911304EB
:103070000E94850822E083E795E0B21689F08EE68B
:1030800095E00E94D505609104047091050480913B
:1030900006049091070440E10E9441088BE695E008
:1030A0000E94D5056AE070E080911C0490911D0497
:1030B0000E9485088CE595E00E94D50580911E044C
:1030C00087FF06C08DE40E94F0058AE295E07ECF7E
:1030D0008CE4F9CF89EE95E00E94D5058DC80E9459
:1030E0008B0889E292E00E9434089601A2E3B0E0E6
:1030F0000E9481194AE00E9441080E948B080E94A8
:103100008B0880910603833011F41092060380919E
:103110000004909101048831910509F44EC0E8F44F
:103120008830910509F454C0469709F46DC065E0F4
:1031300070E080E090E00E94B60480E090E0892B8F
:1031400011F40C949F0D0E945205882311F40C94E5
:103150009F0D0E9400000C949F0D82359105B9F0DF
:103160008A35910509F44DC04C9709F764EB70E07E
:1031700081EF93E00E94150668E171E080E090E045
:103180000E94B6046AE570E081EF93E031C060917F
:10319000F0017091F1016B3071054CF268507109CA
:1031A0007093F1016093F00184EF93E00E941506A3
:1031B00062E370E080E090E021C06091F0017091E6
:1031C000F1016F3A71050CF0B2CF685F7F4FE8CF25
:1031D00065EA70E087EF93E00E94150664E670E010
:1031E00080E090E00E94B6046AE570E087EF93E02B
:1031F0000E94150665E070E080E090E00E94B60451
:1032000096CF6FE070E0E6CF64EB70E081EF93E083
:103210000E9415066CED75E080E090E00E94B60417
:103220006AE570E081EF93E00E94150665E070E0CA
:1032300080E090E00E94B604BBCFDB018F939F93A8
:103240000E946E19BF91AF91A29F800D911DA39F07
:10325000900DB29F900D11240895A1E21A2EAA1B81
:10326000BB1BFD010DC0AA1FBB1FEE1FFF1FA21736
:10327000B307E407F50720F0A21BB30BE40BF50B33
:10328000661F771F881F991F1A9469F760957095BC
:10329000809590959B01AC01BD01CF010895052E4D
:1032A00097FB1EF400940E94661957FD07D00E94F8
:1032B0002D1907FC03D04EF40C94661950954095D7
:1032C000309521953F4F4F4F5F4F089590958095D2
:1032D000709561957F4F8F4F9F4F08950E94811980
:1032E000A59F900DB49F900DA49F800D911D11245A
:1032F0000895B7FF0C946E190E946E19821B930BF0
:103300000895A29FB001B39FC001A39F700D811DBE
:103310001124911DB29F700D811D1124911D0895DE
:10332000991B79E004C0991F961708F0961B881F17
:103330007A95C9F780950895AA1BBB1B51E107C078
:10334000AA1FBB1FA617B70710F0A61BB70B881F35
:10335000991F5A95A9F780959095BC01CD010895C4
:10336000EE0FFF1F0590F491E02D0994F894FFCF24
:1033700006002628236810F4012C06F4012602809A
:103380006E009D09050026E02070100E022A060E30
:10339000020E02004100000013002680118011304F
:1033A00002900630023002006E007A091D002638B5
:1033B000081C040E022A060E020E02003200000053
:1033C0001C0026220B220BEE026608EE02EE0280A3
:1033D0006E0000001A00269E0002049E0029029E34
:1033E000000701006E000000190026F603BC050866
:1033F00002BC050802D401004B0000001B00261F80
:10340000015D033E023E021F015D03806E0000006D
:1034100017002860095802B00458025802580200E8
:103420002D00000004002604010C0304011C070405
:10343000010C03006E0000000C0025800DC006B0DA
:10344000011005B001B00100820000000800260054
:103450002380113002900630023002006E009D0978
:103460006400000000008805E8041505F505460520
:10347000240538050D0A0050756C73654469737432
:10348000616E636557696474680046726F6D41725E
:103490007261792833382C200053756D3A20000072
:107E0000112484B714BE81FFF0D085E080938100F7
:107E100082E08093C00088E18093C10086E0809377
:107E2000C20080E18093C4008EE0C9D0259A86E02C
:107E300020E33CEF91E0309385002093840096BBD3
:107E4000B09BFECF1D9AA8958150A9F7CC24DD24C4
:107E500088248394B5E0AB2EA1E19A2EF3E0BF2EE7
:107E6000A2D0813461F49FD0082FAFD0023811F036
:107E7000013811F484E001C083E08DD089C08234E0
:107E800011F484E103C0853419F485E0A6D080C0E4
:107E9000853579F488D0E82EFF2485D0082F10E0AE
:107EA000102F00270E291F29000F111F8ED06801E7
:107EB0006FC0863521F484E090D080E0DECF843638
:107EC00009F040C070D06FD0082F6DD080E0C81688
:107ED00080E7D80618F4F601B7BEE895C0E0D1E017
:107EE00062D089930C17E1F7F0E0CF16F0E7DF06D8
:107EF00018F0F601B7BEE89568D007B600FCFDCFD4
:107F0000A601A0E0B1E02C9130E011968C91119780
:107F100090E0982F8827822B932B1296FA010C0160
:107F200087BEE89511244E5F5F4FF1E0A038BF0790
:107F300051F7F601A7BEE89507B600FCFDCF97BE46
:107F4000E89526C08437B1F42ED02DD0F82E2BD052
:107F50003CD0F601EF2C8F010F5F1F4F84911BD097
:107F6000EA94F801C1F70894C11CD11CFA94CF0C13
:107F7000D11C0EC0853739F428D08EE10CD085E9AC
:107F80000AD08FE07ACF813511F488E018D01DD067
:107F900080E101D065CF982F8091C00085FFFCCF94
:107FA0009093C60008958091C00087FFFCCF809118
:107FB000C00084FD01C0A8958091C6000895E0E648
:107FC000F0E098E1908380830895EDDF803219F02E
:107FD00088E0F5DFFFCF84E1DECF1F93182FE3DFCA
:107FE0001150E9F7F2DF1F91089580E0E8DFEE27F6
:047FF000FF270994CA
:027FFE00040479
:00000001FF
