:020000040000FA
:100000000C9442030C946A030C946A030C946A03E4
:100010000C946A030C946A030C946A030C946A03AC
:100020000C944D0B0C946A030C946A030C94910A83
:100030000C946A030C946A030C946A030C946A038C
:100040000C94EF090C946A030C945F0A0C94390A1F
:100050000C946A030C946A030C946A030C946A036C
:100060000C946A030C946A03464153540057687910
:100070006E746572004D6167695175657374004CEB
:1000800065676F00426F7365576176650042616E08
:1000900067264F6C756673656E00536F6E790053FB
:1000A000686172700053616D73756E674C470053E1
:1000B000616D73756E6734380053616D73756E676B
:1000C0000052433600524335004B617365696B79CA
:1000D0006F5F4D697473756269736869004B617312
:1000E00065696B796F5F4A5643004B617365696B55
:1000F000796F5F5368617270004B617365696B79EA
:100100006F5F44656E6F6E004B617365696B796FED
:100110000050616E61736F6E6963004F6E6B796F33
:10012000004E454332004E4543004C4732004C4799
:10013000004A56430044656E6F6E004170706C65F6
:100140000050756C736544697374616E636500502B
:10015000756C7365576964746800554E4B4E4F5704
:100160004E00486173682000556E69766572736150
:100170006C2050756C73652044697374616E63659F
:100180002057696474682C20004D6167695175655A
:1001900073742C2000426F736577617665202C2084
:1001A000004C65676F20506F7765722046756E63EF
:1001B00074696F6E732C20005768796E7465722CA9
:1001C0002000464153542C200053616D73756E67B7
:1001D0002C20004A56432C20004C472C2000524330
:1001E000362C20005243352C2000536F6E792C2082
:1001F0000044656E6F6E2F53686172702C20005042
:10020000616E61736F6E69632F4B617365696B79A2
:100210006F2C20004E45432F4E4543322F4F6E6BBF
:10022000796F2F4170706C652C20006174207069AB
:100230006E203900526561647920746F20726563A5
:1002400065697665204952207369676E616C732019
:100250006F662070726F746F636F6C733A20005317
:1002600054415254202F55736572732F64616E6927
:10027000656C746F6D706B696E732F446F63756D11
:10028000656E74732F41726475696E6F2F49527475
:1002900075727265744861636B31526F756C657409
:1002A00074652F49527475727265744861636B315D
:1002B000526F756C657474652E696E6F2066726F0F
:1002C0006D2041707220313220323032340D0A55A7
:1002D00073696E67206C69627261727920766572EB
:1002E00073696F6E20342E322E3100496620796F8B
:1002F000752067657420756E6578706563746564D4
:1003000020726573756C74732C2074727920746F0D
:1003100020696E637265617365207468652052455B
:10032000434F52445F4741505F4D4943524F532022
:10033000696E20495272656D6F74652E682E004299
:1003400075742069742063616E206265204F4B20B4
:10035000666F7220736F6D652079657420756E739A
:100360007570706F727465642070726F746F636FF4
:100370006C732C20616E6420657370656369616CB9
:100380006C7920666F7220726570656174732E00DF
:10039000207573206B6E6F776E20666F7220696DAB
:1003A000706C656D656E7465642070726F746F63D8
:1003B0006F6C73206C696B65204E45432C20536F26
:1003C0006E792C20524325206574632E2E002075F3
:1003D00073206265747765656E2074776F2064653D
:1003E000746563746564207472616E736D69737390
:1003F000696F6E20697320736D616C6C6572207417
:1004000068616E20746865206D696E696D616C202D
:10041000676170206F6620005370616365206F66AE
:100420002000204C534220666972737400204D53A3
:1004300042206669727374002062697473002052EE
:1004400061772D446174613D3078007573002067D9
:1004500061703D00526570656174004175746F2D67
:100460000020546F67676C653D31002050617269F0
:100470007479206661696C002045787472613D3042
:10048000780020436F6D6D616E643D3078002041CF
:100490006464726573733D30780020626974732000
:1004A00028696E636C2E2067617020616E64207312
:1004B00074617274292072656365697665640020D1
:1004C000486173683D30780050726F746F636F6C71
:1004D0003D004F766572666C6F77005A014F01419F
:1004E000013B01350131012E012A01260121011BA9
:1004F0000111010801F900EA00DD00C900C500C1D1
:1005000000B900AF00A5009F009A008D0084007F15
:100510000075006D0068002C20002C20002C2000AD
:100520002C20002C2000293B002C20307800534246
:100530005F46495253542C203C526570656174509B
:100540006572696F644D696C6C69733E2C203C6EFA
:10055000756D6265724F66526570656174733E00B9
:100560002C2050524F544F434F4C5F49535F002C47
:1005700020002C203078002C2026745261774461B2
:1005800074615B305D2C20002C203C6E756D6265C3
:10059000724F66526570656174733E002C20322C78
:1005A00020002C20307800283078002049725365D4
:1005B0006E6465722E73656E6400202020007D3BA2
:1005C000002C203078002020202075696E74333292
:1005D0005F742074526177446174615B5D3D7B3070
:1005E000780053656E6420776974683A00526563D9
:1005F0006569766564206E6F697365206F7220612E
:100600006E20756E6B6E6F776E20286F72206E6F26
:10061000742079657420656E61626C656429207050
:10062000726F746F636F6C000000000800020100BD
:1006300000030407000000000000000000000000AC
:10064000250028002B0000000000240027002A00BD
:100650000000000023002600290004040404040410
:100660000404020202020202030303030303010261
:100670000408102040800102040810200102040830
:100680001020680C11241FBECFEFD8E0DEBFCDBF15
:1006900012E0A0E0B1E0E4E8F6E302C005900D92BC
:1006A000A638B107D9F724E0A6E8B2E001C01D9250
:1006B000A438B207E1F713E0C2E4D3E004C0219705
:1006C000FE010E943A1BC134D107C9F70E94AB0C4E
:1006D0000C94401B0C940000CF93DF9380935F0336
:1006E00090E09C012259394FF901449140936203F3
:1006F000865A994FFC014491E42FF0E0EE0FFF1F62
:10070000E05BF94F4591549150936103409360032E
:10071000F9012491FC0184918823B9F090E0880FBD
:10072000991FFC01EA5BF94FC591D491FC01E45C8F
:10073000F94FA591B4919FB7F894888120958223B1
:1007400088838C9128232C939FBFDF91CF910895AC
:10075000E0917704F09178042385348528173907D0
:1007600028F48091760481608093760408950F9335
:100770001F93CF93DF93E0917704F0917804409139
:10078000C002828510E0481708F064C0142F117071
:100790000091BF0201114FC0842F90E0880F991F74
:1007A000E80FF91F0384F485E02D2CEE3FEF1123B1
:1007B00011F024E130E0C091BD02D091BE022C0FB7
:1007C0003D1FC90163E470E00E94261BE617F7078E
:1007D00060F0C90168E270E00E94261B6F5F7F4FE6
:1007E00081E090E06E177F0710F52C0F3D1FC901C7
:1007F00063E470E00E94261BE617F70750F0C9017A
:1008000068E270E00E94261B6F5F7F4F6E177F07C4
:1008100060F42C0F3D1FC90163E470E00E94261BA9
:10082000E617F707E8F41FEF15C082E090E0909319
:10083000BC028093BB020F5F0093BF028091BB029A
:100840009091BC020817190628F01092BF024F5F62
:100850004093C002812FDF91CF911F910F91089596
:10086000C90168E270E00E94261B6F5F7F4F6E1720
:100870007F07C8F283E090E0DACF90E0FC01E85D0A
:10088000F94F2491FC01E259F94F3491FC01E65AE9
:10089000F94FE491EE23C9F0222339F0233001F11E
:1008A000A8F4213019F1223029F1F0E0EE0FFF1FFA
:1008B000E45CF94FA591B4918FB7F894EC91611174
:1008C00026C030953E233C938FBF08952730A9F072
:1008D0002830C9F0243049F7809180008F7D03C013
:1008E000809180008F7780938000DFCF84B58F77F1
:1008F00084BDDBCF84B58F7DFBCF8091B0008F7737
:100900008093B000D2CF8091B0008F7DF9CF3E2B85
:10091000DACF3FB7F8948091B1029091B202A091E2
:10092000B302B091B40226B5A89B05C02F3F19F0C1
:100930000196A11DB11D3FBFBA2FA92F982F88275F
:10094000BC01CD01620F711D811D911D42E0660F3A
:10095000771F881F991F4A95D1F708958F929F920C
:10096000AF92BF92CF92DF92EF92FF926B017C0128
:100970000E9489044B015C01C114D104E104F1041B
:10098000B9F00E948904681979098A099B09683EAF
:1009900073408105910580F321E0C21AD108E10876
:1009A000F10888EE880E83E0981EA11CB11CE4CFEC
:1009B000FF90EF90DF90CF90BF90AF909F908F907F
:1009C0000895AF92BF92CF92DF92EF92FF920F9372
:1009D0001F93CF93DF936C017B018B01040F151FD5
:1009E000EB015E01AE18BF08C017D10759F069913D
:1009F000D601ED91FC910190F081E02DC6010995A1
:100A0000892B79F7C501DF91CF911F910F91FF904D
:100A1000EF90DF90CF90BF90AF900895FC01538D81
:100A2000448D252F30E0842F90E0821B930B5417C8
:100A300010F0CF96089501970895FC01918D828D55
:100A4000981761F0A28DAE0FBF2FB11D5D968C91EE
:100A5000928D9F5F9F73928F90E008958FEF9FEF2D
:100A60000895FC01918D828D981731F0828DE80FE9
:100A7000F11D858D90E008958FEF9FEF0895FC01A3
:100A8000918D228D892F90E0805C9F4F821B910970
:100A90008F739927089581EC92E00E943F0521E031
:100AA000892B09F420E0822F089580E090E0892BC3
:100AB00029F00E944B0581110C9400000895FC015F
:100AC000A48DA80FB92FB11DA35ABF4F2C91848DAF
:100AD00090E001968F739927848FA689B7892C930C
:100AE000A089B1898C91837080648C93938D848D5F
:100AF000981306C00288F389E02D80818F7D808362
:100B00000895EF92FF920F931F93CF93DF93EC0121
:100B100081E0888F9B8D8C8D98131AC0E889F989A4
:100B2000808185FF15C09FB7F894EE89FF896083A7
:100B3000E889F98980818370806480839FBF81E028
:100B400090E0DF91CF911F910F91FF90EF9008956A
:100B5000F62E0B8D10E00F5F1F4F0F731127E02E45
:100B60008C8D8E110CC00FB607FCFACFE889F9897D
:100B7000808185FFF5CFCE010E945F05F1CFEB8D1F
:100B8000EC0FFD2FF11DE35AFF4FF0829FB7F89451
:100B90000B8FEA89FB8980818062CFCF0F931F93EF
:100BA000CF93DF938C01D0E0C0E0F801EC0FFD1F84
:100BB0006491662341F081EC92E00E948105892BCB
:100BC00011F02196F2CFCE01DF91CF911F910F91BD
:100BD0000895682F81EC92E00C948105CF93DF9308
:100BE000EC01888D8823B9F0AA89BB89E889F98945
:100BF0008C9185FD03C0808186FD0DC00FB607FC7A
:100C0000F7CF8C9185FFF2CF808185FFEDCFCE01AC
:100C10000E945F05E9CFDF91CF910895CF92DF92D7
:100C2000EF92FF92CF93DF93EC01603282E078077E
:100C3000CCF5653B710514F064EB70E0898128E820
:100C400030E0281B310987FD3395220F331F220F17
:100C5000331F6901330FEE08FF088A8128E532E06F
:100C6000281B310987FD3395220F331F220F331FB5
:100C7000032E000C440B550B2C193D094E095F093E
:100C8000DB0177FF02C0B0E0A0E00E94031B24EB71
:100C900030E040E050E00E94D91AC20ED31EE41E9C
:100CA000F51EB601E881EC3070F5298188E890E006
:100CB000821B910927FD9395880F991F880F991F13
:100CC000681779077CF02A8188E592E0821B9109F8
:100CD00027FD9395880F991F880F991F681779072B
:100CE0000CF4CB010297880F991F4FB7F8942E2F61
:100CF00030E0F901EE0FFF1FE20FF31FE857FD4F41
:100D0000928381834FBFDF91CF91FF90EF90DF906F
:100D1000CF900895CF93DF93DC018C918C3008F055
:100D20006DC0CB01FB01E259F94F2491865A994FCE
:100D3000FC018491882399F090E0880F991FFC01B1
:100D4000EA5BF94FC591D491FC01E45CF94F8591C0
:100D500094918FB7F894E881E22BE8838FBF8C9150
:100D6000282F30E0F901EE0FFF1FE20FF31FE857C5
:100D7000FD4F962F9F736081607C692B6083119675
:100D80001C92119712961C9212972CE0622F0E94CF
:100D90001A1B829FB001112430E020E0AB01420F0A
:100DA000531FFA01EE0FFF1FE40FF51FE857FD4F29
:100DB000908196FD16C02F5F3F4F2C30310571F7A3
:100DC00081110FC01092800082E080938100109208
:100DD000850010928400B19A80916F0082608093A8
:100DE0006F00EC918E2F90E0FC01EE0FFF1FE80FDB
:100DF000F91FE857FD4F8081806480838C91DF91DB
:100E0000CF9108958F929F92AF92BF92CF92DF922F
:100E1000EF92FF924B015C010E9489046B017C01FF
:100E200024E0C21AD108E108F1080E9489046C1973
:100E30007D098E099F09681579058A059B05A8F328
:100E4000FF90EF90DF90CF90BF90AF909F908F90EA
:100E50000895FC019B0124513109C90163E470E04C
:100E60000E94261BE617F70758F0C90168E270E0F8
:100E70000E94261B6F5F7F4F81E06E177F0708F48B
:100E800080E008952F923F924F925F926F927F92EF
:100E90008F929F92AF92BF92CF92DF92EF92FF928A
:100EA0000F931F93CF93DF9300D000D000D0CDB726
:100EB000DEB7382E6D835A013C832B8348012E2CDC
:100EC0009A012C5E3F4FC90163E470E00E94261B2B
:100ED0008B01C90168E270E00E94261B9B012F5F15
:100EE0003F4F3A8329835D81452F50E0440F551FC2
:100EF000455F5F4F8091770490917804480F591FA8
:100F00005E834D83412C512C32014394C12CD12C52
:100F100076013320B9F18B819C81A816B906E1F4E2
:100F2000B401ED81FE81828193810E9429072220F4
:100F300011F1CC0CDD1CEE1CFF1C882311F0689411
:100F4000C0F8440C551C661C771C3A948D819E8118
:100F500004969E838D83DDCFED81FE8120813181DA
:100F60002017310730F081E049815A814217530739
:100F7000F0F680E0DCCF882321F3C428D528E628CA
:100F8000F728DFCFC0925C04D0925D04E0925E044B
:100F9000F0925F0481E026960FB6F894DEBF0FBE94
:100FA000CDBFDF91CF911F910F91FF90EF90DF9018
:100FB000CF90BF90AF909F908F907F906F905F90F9
:100FC0004F903F902F900895EF920F931F93FC0145
:100FD000862F642FEE24E3949785911101C0E12CB4
:100FE0000185128523853485478150850E944207FB
:100FF0001F910F91EF9008950F931F93CF93DF935D
:10100000EC01E0917704F0917804058516852B8139
:101010003C812C5E3F4FC90163E470E00E94261BB7
:1010200006171707A0F0C90168E270E00E94261BAE
:101030006F5F7F4F6017710750F06D817E818785EC
:101040009089DF91CF911F910F910C94290780E037
:10105000DF91CF911F910F910895FC010190002025
:10106000E9F73197AF01481B590BBC0181EC92E0C5
:101070000C94E1048F929F92AF92BF920F931F93B3
:10108000CF93DF93CDB7DEB7A1970FB6F894DEBF4D
:101090000FBECDBF19A2423008F44AE08E010F5DA9
:1010A0001F4F842E912CB12CA12CA50194010E94DC
:1010B000B71AE62FB901CA01EA30F4F4E05DD801AD
:1010C000EE938D01232B242B252B79F790E080E0E4
:1010D000109719F0CD010E942D08A1960FB6F89433
:1010E000DEBF0FBECDBFDF91CF911F910F91BF909B
:1010F000AF909F908F900895E95CE1CF462FBC019F
:1011000090E080E00C943A0888E092E00C942D087E
:10111000CF93DF930E94CE05EC010E9484088C0FD0
:101120009D1FDF91CF910895CF93DF930E942D08EB
:10113000EC010E9484088C0F9D1FDF91CF910895D0
:10114000CF92DF92EF92FF92CF93DF936C01990FD2
:10115000EE08FF08F7FE17C08DE20E94E905EC01DA
:1011600066277727CB016C197D098E099F094AE014
:101170000E943A088C0F9D1FDF91CF91FF90EF9056
:10118000DF90CF9008954AE0C701B601DF91CF917B
:10119000FF90EF90DF90CF900C943A088BE092E0B4
:1011A0000E942D0881E090E00E94A00883E192E077
:1011B0000E94940864EB70E089E494E00E940E06BB
:1011C0006EE970E080E090E00E94AE046AE570E0B5
:1011D00089E494E00E940E0665E070E080E090E013
:1011E0000E94AE048091B5029091B60286309105BE
:1011F00034F401969093B6028093B502089586E088
:1012000090E0F8CF80915204882319F060E00C94AC
:101210003D042D980895882349F080915204882335
:1012200019F061E00C943D042D9A08950C94020984
:101230004F925F926F927F928F929F92AF92BF92E6
:10124000CF92DF92EF92FF92CF93DF93CDB7DEB7CD
:101250002C970FB6F894DEBF0FBECDBF7C010E9465
:10126000890469837A838B839C834B015C0120E032
:10127000B0E0A0E0A701BD01455251096109710923
:101280004D835E836F837887A701BD014750510965
:101290006109710949875A876B877C87F8945B9A43
:1012A0008091B9029091BA028230910538F0880F8E
:1012B000991F880F991F05970197F1F75B9878940C
:1012C000211107C080915304823019F481E00E94FB
:1012D0000B098091B7029091B802880E991EA11C4B
:1012E000B11CF8940E9489042B013C016B016981B7
:1012F0007A81C61AD70AF12CE12C8D819E81AF81AB
:10130000B885C816D906EA06FB0634F08091530466
:10131000823011F40E94020949855A856B857C85CB
:10132000C416D506E606F706B4F078942C960FB6E8
:10133000F894DEBF0FBECDBFDF91CF91FF90EF904D
:10134000DF90CF90BF90AF909F908F907F906F90E5
:101350005F904F90089521E0481459046A047B047B
:1013600008F4C0CF9BCFE7EBF2E08AE190E09183F5
:10137000808388E090E093838283539A80E891E1B0
:101380000E94180960E871E180E090E00E94020785
:1013900080E392E00E94180960E372E080E090E050
:1013A0000E94020780E392E00C941809E7EBF2E058
:1013B0008AE190E09183808388E090E09383828348
:1013C000539A80E093E20E94180960EC78E080E094
:1013D00090E00E94020780E392E00C9418091F92AB
:1013E0000F920FB60F9211242F933F938F939F93D9
:1013F000AF93BF938091AD029091AE02A091AF02E6
:10140000B091B0023091AC0223E0230F2D3758F594
:101410000196A11DB11D2093AC028093AD02909363
:10142000AE02A093AF02B093B0028091B10290914E
:10143000B202A091B302B091B4020196A11DB11DF8
:101440008093B1029093B202A093B302B093B4021E
:10145000BF91AF919F918F913F912F910F900FBEB0
:101460000F901F90189526E8230F0296A11DB11D1D
:10147000D2CF1F920F920FB60F9211242F933F934A
:101480004F935F936F937F938F939F93AF93BF938C
:10149000EF93FF9381EC92E00E945F05FF91EF9143
:1014A000BF91AF919F918F917F916F915F914F917C
:1014B0003F912F910F900FBE0F901F9018951F9284
:1014C0000F920FB60F9211242F938F939F93EF9348
:1014D000FF93E091D102F091D2028081E091D70296
:1014E000F091D80282FD1BC090818091DA028F5F5B
:1014F0008F732091DB02821741F0E091DA02F0E075
:10150000EF53FD4F958F8093DA02FF91EF919F91FA
:101510008F912F910F900FBE0F901F901895808183
:10152000F4CF1F920F920FB60F9211242F933F9377
:101530004F935F936F937F938F939F93AF93BF93DB
:10154000CF93DF93EF93FF9380918602C091870240
:10155000D0E087FF24C01092850010928400809113
:1015600086028F5F8093860280918602082E000C8F
:10157000990B8C179D0724F4809186028C30C4F15E
:101580008091840090918500049680349C4908F4F1
:101590007AC08091840090918500049676C08091F5
:1015A0008602082E000C990B8C179D07C4F6E0915B
:1015B00086028E2FEE0F990BFC01EE0FFF1FE80F36
:1015C000F91FE857FD4F808186FFC9CFE091860261
:1015D0008E2FEE0F990BFC01EE0FFF1FE80FF91F86
:1015E000E857FD4F808160E08F730E943D04B7CFC4
:1015F0002091840030918500E09186028E2FEE0FBD
:10160000990BFC01EE0FFF1FE80FF91FE857FD4F84
:1016100081819281820F931F90938900809388002B
:10162000E09186028E2FEE0F990BFC01EE0FFF1F4B
:10163000E80FF91FE857FD4F808186FF11C0E09148
:1016400086028E2FEE0F990BFC01EE0FFF1FE80FA5
:10165000F91FE857FD4F808161E08F730E943D04C0
:10166000FF91EF91DF91CF91BF91AF919F918F91BA
:101670007F916F915F914F913F912F910F900FBE8E
:101680000F901F90189580E49CE9909389008093B7
:1016900088008FEF80938602E3CF1F920F920FB6E0
:1016A0000F9211242F933F934F935F936F937F93E8
:1016B0008F939F93AF93BF93CF93EF93FF93E0915B
:1016C0006003F0916103C08180916203C82380911F
:1016D000630390916403019649F0809163039091B4
:1016E00064030196909364038093630380915E0387
:1016F00081111DC0C1116EC080916303909164037C
:101700008536910578F0109267038091630390917C
:10171000640390936A038093690381E08093680374
:1017200080935E03109264031092630353C0809110
:101730005E038130A9F4CC2309F44CC0E091680326
:101740008E0F809368038091630390916403F0E0AF
:10175000EE0FFF1FE25AFC4F9487838782E0E0CFB1
:1017600080915E03823009F04FC0C11122C0E09128
:10177000680381E0E03768F08093670383E080933B
:101780005E03E0916503F0916603309759F2099585
:10179000C9CF8E0F80936803809163039091640397
:1017A000F0E0EE0FFF1FE25AFC4F9487838781E041
:1017B000B7CF80916303909164038536910550F013
:1017C00083E080935E03E0916503F09166033097B8
:1017D00009F0099580915304813021F4C11180E012
:1017E0000E940B09FF91EF91CF91BF91AF919F9113
:1017F0008F917F916F915F914F913F912F910F90BA
:101800000FBE0F901F90189580915E03833011F7E3
:10181000C111E0CF87CFEF92FF920F931F93CF9329
:10182000DF93EC01F62F8A01790190E080E030E04F
:10183000E0E0DE01AE0FB11D2C91222341F0320F0A
:101840002E9F800D911D11241C92FE1315C0332371
:1018500099F0532F5695850F911D632F70E00E94CC
:10186000261BDE01A60FB11D3C93D8013C9131111E
:101870000EC06C9390E080E0EF5FFE17D0F681E041
:10188000DF91CF911F910F91FF90EF900895D701B5
:101890003C91332371F380E0F3CFFC0190918702F8
:1018A0009C3098F481E0890F809387029083892F80
:1018B00090E0FC01EE0FFF1FE80FF91FE857FD4F06
:1018C00088EB9BE09283818308958FEF8083089556
:1018D000E1ECF2E01382128288EE93E0A0E0B0E047
:1018E00084839583A683B7838AEF91E09183808375
:1018F00085EC90E09587848784EC90E097878687D5
:1019000080EC90E0918B808B81EC90E0938B828BCC
:1019100082EC90E0958B848B86EC90E0978B868BA5
:10192000118E128E138E148E8EE593E090937804B0
:101930008093770480E00E946C03109252048FE43D
:1019400094E00E944D0C8CE494E00E944D0C89E4DC
:1019500094E00C944D0CCF93DF93CDB7DEB7E797AF
:101960000FB6F894DEBF0FBECDBF789484B5826009
:1019700084BD84B5816084BD85B5826085BD85B533
:10198000816085BD80916E00816080936E001092B1
:10199000810080918100826080938100809181002C
:1019A00081608093810080918000816080938000BD
:1019B0008091B10084608093B1008091B00081601B
:1019C0008093B00080917A00846080937A00809147
:1019D0007A00826080937A0080917A00816080939F
:1019E0007A0080917A00806880937A001092C1001A
:1019F000E091D102F091D20212E01083E091CD0289
:101A0000F091CE021082E091CF02F091D0028FECE3
:101A100080831092D902E091D502F091D60286E03F
:101A20008083E091D302F091D40280818061808331
:101A3000E091D302F091D402808188608083E091AC
:101A4000D302F091D402808180688083E091D30238
:101A5000F091D40280818F7D80836AE070E08FE412
:101A600094E00E948A066BE070E08CE494E00E94AF
:101A70008A066CE070E089E494E00E948A068FE5B3
:101A800092E00E94880889E00E946C031092520440
:101A900080915304816080935304259A1093B00081
:101AA0001093B10084E68093B3008093B400109249
:101AB000B20080915E03833011F410925E0384E0E3
:101AC0008093700084E392E00E94CE0584E192E06E
:101AD0000E94CE058FEF91E00E94CE0581EF91E04C
:101AE0000E94CE058AEE91E00E94CE0584EE91E040
:101AF0000E94CE058EED91E00E94CE0589ED91E029
:101B00000E94CE0583ED91E00E94CE0589EC91E024
:101B10000E94CE0582EC91E00E94CE0588EB91E018
:101B20000E94CE0581EA91E00E94CE0585E991E010
:101B30000E94CE0589E891E00E94CE0588E691E0FA
:101B40000E94CE0582E691E00E94CE058BE292E0F3
:101B50000E9488086AE570E08FE494E00E940E0617
:101B600064E170E080E090E00E94AE046AE570E01D
:101B700089E494E00E940E0664E670E080E090E064
:101B80000E94AE0464E670E08CE494E00E940E06CD
:101B900064E670E080E090E00E94AE0484E690E0AD
:101BA0009093F1018093F0018BE192E00E94940800
:101BB0009E012F5F3F4F190180915E03833011F02A
:101BC0000C946E1880916703882309F458C080E450
:101BD0008093760410925504109254041092590484
:101BE00010925804109257041092560410925C04FC
:101BF00010925D0410925E0410925F0410927504BE
:101C0000109274048091760486FDD2C1E09177042D
:101C1000F09178042285822F8F7B843009F0BBC03D
:101C200085859685865891098C35910508F0B3C055
:101C300087859089243009F049C08197489708F03A
:101C4000AAC0818992890897089708F0A4C081E00A
:101C50008093760480917B0490917C049093570448
:101C60008093560480917F0490918004909359044E
:101C7000809358048091790490917A0464C0109202
:101C80007604809154049091550490937A04809343
:101C900079048091580490915904B0E0A0E08093B9
:101CA0007F0490938004A0938104B0938204809178
:101CB000560490915704B0E0A0E080937B04909389
:101CC0007C04A0937D04B0937E0484CF8254910958
:101CD0008F9708F060C043E060E28CED91E00E94D5
:101CE000E407882309F457C080915C0490915D0457
:101CF00040915E0450915F04242F30E030935904EA
:101D0000209358049C012E3E67E8360709F583E0CE
:101D100090E09093550480935404852F90E0909325
:101D200057048093560480E290E09093750480936A
:101D300074048AE795E00E94A8038091760480FFEE
:101D400033C189E090E090935504809354042CC1F2
:101D50009095891310C090E0909357048093560497
:101D6000852F809548130CC088E090E0909355042F
:101D700080935404D8CF3093570420935604F0CF67
:101D80008AE090E090935504809354044093580463
:101D900050935904C8CFE0917704F091780482857C
:101DA000843609F08FC088EC91E00E94FC078823FC
:101DB00009F488C043E060E188EC91E00E94E40708
:101DC000882309F47FC0D0905C040D2D10915D0430
:101DD0009BE0E92EF12C023080E21807F9F08EE04A
:101DE000E82EF12C0A3A9AE51907C1F0BDE0EB2E76
:101DF000F12C0435E2E31E0789F0AFE0EA2EF12C66
:101E00000330F1E01F0751F020E1E22EF12C033204
:101E10002BEC120719F0FCE0EF2EF12C43E260E20C
:101E200088EC91E00E94E407882309F44BC0D12696
:101E300040915C0450915D0460915E0470915F0478
:101E4000CA01E4E096958795EA95E1F790935704E7
:101E500080935604862F90E0909359048093580401
:101E6000942F962795278D2D82958F708D258F70B5
:101E7000242F2F70821719F084E0809376043CE0C1
:101E8000E316F10449F4809176048061809376042E
:101E900010935B0400935A04971729F080917604FD
:101EA00084608093760480E390E09093750480933F
:101EB0007404F0925504E09254048AE397E00E947F
:101EC000A80372C0E0917704F09178048285803293
:101ED00009F0B2C141E06FE084EB91E00E94E407B9
:101EE000882309F4A9C1E0917704F0917804DF0117
:101EF000A75BBF4F8D919C910497059708F09CC1FB
:101F000080915C0490915D04A0915E04B0915F04A7
:101F10009C012F713327309357042093560455E0CA
:101F2000B695A795979587955A95D1F7492F437000
:101F30009C0133273093590420935804238534851A
:101F40002536344008F070C1209183042F5F209320
:101F50008304223018F021E02093760490FF14C00F
:101F600020917604322F32603093760430917F04D2
:101F7000509180048095831719F026602093760491
:101F800030935804509359044150423008F051C1E5
:101F900086E190E090935504809354048FE090E0A4
:101FA00090937504809374048091760486FF0CC727
:101FB00082ED94E00E948808809154049091550429
:101FC0000097A1F1039794F5E0917704F0917804DC
:101FD000838594858C32914048F50E94840888E17D
:101FE00094E00E94CE05E0917704F0917804238577
:101FF0003485A2E3B0E00E940B1B4AE00E943A083D
:102000008EEC93E00E94CE0588E99AE30E94A00836
:1020100080E993E00E9488088FE393E00E9488089B
:102020008BEE92E00E9488080E94840880915404FC
:1020300090915504892B09F4B5C080917604837082
:1020400009F0B0C082EE95E00E94CE058091540464
:10205000909155040197B12C0297F0F5809174048A
:1020600090917504019765E0969587956A95E1F7DB
:10207000BB24B394B80E21E02B1570F50E948408A0
:1020800086EC95E00E94CE055CE6E52E54E0F52E48
:1020900010E000E08B2D8150990B6C01F7016191EC
:1020A0007191819191917F0140E10E943A08C0169F
:1020B000D10621F081EC95E00E94CE050F5F1F4F05
:1020C0000B1560F38EEB95E00E9488088AEB95E093
:1020D0000E94CE0542E0B42E8BEA95E00E94CE0528
:1020E000E0915404F0915504CF010197029708F450
:1020F0004DC7EE0FFF1FE552FB4F859194910E9453
:10210000CE0587EA95E00E94CE0580915404909117
:1021100055044B9709F02CC760915C0470915D04E5
:1021200080915E0490915F0440E10E943A0882EA47
:1021300095E00E94CE0560E170E080915804909196
:1021400059040E947E088091540490915504479749
:1021500009F017C78CE995E00E94CE056AE070E0AF
:1021600080917404909175040E947E088091760499
:1021700084FF12C080915404909155040C9761F42F
:1021800089E295E00E94CE0560E170E080915A04FA
:1021900090915B040E947E0886E295E00E94CE0545
:1021A0000E9484088091540490915504892B21F455
:1021B0008DEE95E00E9488080E94840880915E035D
:1021C000833011F410925E03809158049091590469
:1021D0008831910509F4B2C708F059C78D309105CF
:1021E00009F4EFC78631910509F4C2C7089709F0D1
:1021F00075C764EB70E08FE494E00E940E0666E918
:1022000070E080E090E00E94AE046AE570E08FE448
:1022100094E00E940E0665E070E080E090E00E948D
:10222000AE0482E592E058C710928304423009F46C
:10223000AFCE84E090E0AECE80EA91E00E94FC0751
:10224000882309F44EC0E0917704F09178048285E8
:102250008A3129F08A3219F0803209F042C090E0C8
:10226000BC016150710977FDBC017595679543E02C
:1022700080EA91E00E94E407882399F180915C0450
:1022800090915D04A0915E04B0915F049C012F7752
:102290003327309359042093580437E0B695A79517
:1022A000979587953A95D1F7909357048093560464
:1022B000E0917704F0917804228530E0C90101971C
:1022C00097FDC90195958795909375048093740443
:1022D00087E190E0909355048093540480EE91E060
:1022E000EECD81E08093C00289E793E09093BE0237
:1022F0008093BD021092BF020E94B703813009F0A3
:1023000066C0C12CD12C760110E0E0917704F091E9
:10231000780492858091C0028917E0F40E94B70387
:10232000082F0E94B70301110BC0813009F04FC084
:10233000CC0CDD1CEE1CFF1C6894C0F81F5FE5CFC1
:10234000013009F044C0811142C0CC0CDD1CEE1CF0
:10235000FF1CF4CF812F90E0909375048093740458
:10236000C0925C04D0925D04E0925E04F0925F043F
:102370008C2D8F7390E090935904809358049601AC
:1023800016E0369527951A95E1F72F71332730938C
:10239000570420935604960122273071232B31F4E1
:1023A000805C9F4F909359048093580480E88093F9
:1023B0007604D3FE03C088E88093760481E190E040
:1023C00090935504809354048FEC99E078CDE0917C
:1023D0007704F09178048585968588974D9708F065
:1023E00046C0878590890C970B9708F040C083E022
:1023F0008093C0028CEB91E09093BE028093BD026B
:102400001092BF020E94B703813089F50E94B70382
:1024100081112DC0C12CD12C760110E0E091770400
:10242000F091780492858091C002891708F07CC0F1
:102430000E94B703B82E1330B1F00E94B703082FE3
:10244000133021F40E94B703081311C061E0B612E3
:1024500061C001110CC0CC0CDD1CEE1CFF1C68948B
:10246000C0F81F5FDBCF0E94B703B81631F3E091CD
:102470007704F091780422852C3311F0243099F4FC
:10248000858596858638910570F0833E910508F420
:1024900091C08E58910968EB7BE007E010E082362E
:1024A000910508F48BC0E0917704F091780482855F
:1024B000823209F4E8C0843209F00FC184E191E06E
:1024C0000E94FC07882309F408C143E060E184E12D
:1024D00091E00E94E407882309F4FFC080915C0426
:1024E00090915D04A0915E04B0915F04492F5A2F32
:1024F0006B2F772750935904409358049927909352
:1025000057048093560480E190E090937504809383
:102510007404E0C0B110ABCF013009F0A8CFCC0CEF
:10252000DD1CEE1CFF1C9DCF812F90E09093750465
:1025300080937404C0925C04D0925D04E0925E04C7
:10254000F0925F042C2D30E08D2D143200F580E8E0
:102550008093760430935904209358048D2D90E095
:102560009093570480935604E0FE03C088E880935C
:102570007604153128F0809176048061809376048A
:1025800083E79AE00E94A80382E190E0DCCB90E828
:1025900090937604D7FE03C098E890937604309326
:1025A0005904209358048F7790E0909357048093B8
:1025B0005604E6CF68E670E106E010E08785908972
:1025C000243061F44D97469708F06DCF8189928948
:1025D0000797089708F067CF81E83ACB0E94290750
:1025E000882309F460CF43E06CE180E091E00E9431
:1025F000E407882309F457CF80E88093760480911C
:102600005C0490915D04A0915E04B0915F046C0144
:102610007D01E4E0F694E794D794C794EA95D1F766
:10262000A601D0925904C09258046C017D01F4E1D6
:10263000F694E794D794C794FA95D1F7D0925704BB
:10264000C092560424E030E060E0742F7F70670F82
:1026500074E0569547957A95E1F721503109A9F72D
:1026600086278F709927AA27BB27892B8A2B8B2B2C
:1026700019F084E880937604109355040093540471
:102680008CE190E08DCC838594858C3E9C4508F050
:102690008BCC858596850897079708F085CCE35BFA
:1026A000FF4F808191810897079708F07DCC81E0EA
:1026B0008093760480917B0490917C0490935704DE
:1026C0008093560480917F049091800490935904E4
:1026D0008093580485E090E036CBE0917704F09148
:1026E00078041285812F8F7D843419F0163009F01B
:1026F0007EC088E291E00E94FC07882309F477C03D
:102700001630B1F481E08093760480917B0490913F
:102710007C04909357048093560480917F04909199
:102720008004909359048093580485E190E00BCB8A
:1027300043E060E288E291E00E94E407882309F424
:1027400056C010915E0400915F0490915C048091EA
:102750005D049093560480935704E0917704F091C0
:1027600078048285843651F543E460E188E291E0A3
:102770000E94E4078823D9F180915C0490915D0464
:102780000095101731F09095891719F094E0909307
:102790007604982F812F909359048093580480E3F6
:1027A00090E0909375048093740484E190E090939A
:1027B0005504809354048EEB9AE081CB802F809552
:1027C00018130FC0812F90E0909359048093580400
:1027D00080E290E0909375048093740483E190E02C
:1027E000E6CFC8019093580480935904F1CFE0914B
:1027F0007704F09178048285843279F58CE391E056
:102800000E94FC07882349F143E060E18CE391E0FA
:102810000E94E407882309F110915C0480915D0413
:102820008095181719F084E0809376048DE692E085
:102830000E94A803812F90E090935904809358043C
:10284000109257041092560480E190E09093750422
:10285000809374048DE190E076CAE0917704F09162
:10286000780482858434D1F480E591E00E94FC07ED
:102870008823A1F043E060E280E591E00E94E40754
:10288000882361F080E88093760480E290E0909362
:102890007504809374048CE190E055CA84E691E05D
:1028A0000E94FC07E0917704F091780492858823D8
:1028B00009F455C0943209F052C043E060E184E667
:1028C00091E00E94E407882309F449C0E09177046D
:1028D000F0917804DF01AF5ABF4F8D919C91029720
:1028E0000497E8F580E88093760490915C04409129
:1028F0005D04292F342F542F52955F704F7004E0E0
:10290000369527950A95E1F72F709F708FE0852700
:1029100084278227981719F084E8809376048091A1
:10292000760463857485683F714118F482608093F2
:102930007604509356041092570450E1459FC0010D
:102940001124822B909359048093580480E190E0E5
:1029500090937504809374048AE190E0F4C988E749
:1029600091E00E94FC07E0917704F0917804928551
:10297000882381F1943271F543E060E188E791E0CA
:102980000E94E407882331F1E0917704F091780404
:10299000EF5AFF4F8081918108970797D8F4809173
:1029A0005C0490915D0498279F3FA1F490E0909380
:1029B00059048093580480E190E0909375048093CB
:1029C000740489E190E0909355048093540488ED59
:1029D00094E075CAE0917704F0917804828580379D
:1029E00009F059C041E068E08CE891E00E94E407FA
:1029F000882309F450C080915C0490915D04A091FB
:102A00005E04B0915F04892B8A2B8B2B09F043C0A5
:102A100041E16FE18CE891E00E94E4078823D9F15D
:102A2000C0905C04D0905D04E0905E04F0905F0480
:102A30004FE461E18CE891E00E94E407882359F1BA
:102A400090915D0480915E0489279827892790934F
:102A5000590480935804C0925C04D0925D04E092C3
:102A60005E04F0925F04D0925704C0925604F09234
:102A70005B04E0925A048BE190E0909355048093BC
:102A8000540488E390E0909375048093740480E884
:102A90008093760489CAA0917704B09178041A963D
:102AA0008C911A97843108F429C182E3F1011192C3
:102AB0008A95E9F71A962C911A972250330B60E009
:102AC00043E0842F90E082179307BCF4880F991F8E
:102AD000FD01E80FF91F838594858233910508F085
:102AE0000DC1F101E80FF91F50815F5F5083681736
:102AF000190608F4682F4E5FE4CF1EAA1DAA9E0196
:102B00002B5C3F4FAE014A5C5F4FC1010E940B0C32
:102B1000882309F4F3C082E3F10111928A95E9F761
:102B2000A0917704B09178041A962C911A972250AC
:102B3000330B60E044E0842F90E082179307BCF4ED
:102B4000880F991FFD01E80FF91F83859485823353
:102B5000910508F0D3C0F101E80FF91F50815F5FC4
:102B600050836817190608F4682F4E5FE4CF1CAA3B
:102B70001BAA9E012D5C3F4FAE014C5C5F4FC10113
:102B80000E940B0C882309F4B9C0E0917704F091FE
:102B90007804828586958150990BCBA88DA89C01DD
:102BA00021503109CC2019F0811001C0C901909346
:102BB0007504809374049C0121503109E5E0369539
:102BC0002795EA95E1F7522E811003C0CC2009F435
:102BD00095C06CA892E3699E30011124AEA8A99E0D
:102BE00050011124899E40011124C99E60011124C5
:102BF000F82EF3E0FFAB412C8F2D20E22F1508F4C7
:102C000080E29DA9992309F465C0E1E0F0E0F0932A
:102C10005504E0935404E12C83019501A4016FA9AC
:102C20000E944207882309F469C034E0439EF00102
:102C30001124E459FB4F80915C0490915D04A091B4
:102C40005E04B0915F0480839183A283B3835FA904
:102C5000505C5FAB439460EEF60E541468F680ED62
:102C600097E00E94A803E0917704F09178044585ED
:102C7000568582E3849F9001859F300D1124309307
:102C800061042093600447855089849F9001859F4B
:102C9000300D11243093630420936204B0926904D0
:102CA000A092680470926B0460926A04811491048B
:102CB000E1F09092650480926404709267046092DF
:102CC0006604C114D10409F46FC9D0926B04C09298
:102CD0006A046AC922E030E030935504209354041A
:102CE000E12C86019501A5019ACFB0926504A092CE
:102CF0006404D0926704C092660456C9E0907704D9
:102D0000F0907804F7010285063008F44DC9DD24FF
:102D1000D39425EC3DE94CE151E810E07AE0C72E70
:102D20008D2D90E0BC016E5F7F4F60177107CCF571
:102D3000660F771FF701E60FF71FA384B484880F8F
:102D4000991FF701E80FF91F83859485CA9CD0016C
:102D5000CB9CB00D1124FC0163E0EE0FFF1F6A95C0
:102D6000E1F7AE17BF0788F0C89EB001C99E700D8D
:102D70001124C501B3E0880F991FBA95E1F7E2E08D
:102D80006817790718F0E1E001C0E0E063E971E05D
:102D900080E091E00E94A71A9B01AC012E27D394FA
:102DA000BFCF20935C0430935D0440935E04509346
:102DB0005F0480E290E09093750480937404109215
:102DC000550410925404F0C888EC94E00E94CE059B
:102DD000E0915404F0915504EE0FFF1FE552FB4FB4
:102DE000859194910E94CE05809154049091550450
:102DF000009701F58FEB94E00E94CE0560915C0492
:102E000070915D0480915E0490915F0440E10E94A6
:102E10003A0880E20E94E905E0917704F091780495
:102E2000828590E00196969587950E94A0088AE990
:102E300094E0C0C801970297C0F18EE894E00E9428
:102E4000CE0560E170E080915604909157040E9495
:102E50007E0882E894E00E94CE0560E170E08091F7
:102E60005804909159040E947E088091760484FF52
:102E70000CC088E794E00E94CE0560E170E080918C
:102E80005A0490915B040E947E088091760482FF30
:102E900004C08BE694E00E94CE058091760483FF07
:102EA00004C081E694E00E94CE0580917604837090
:102EB00021F180E20E94E9058091760481FF04C03F
:102EC0008BE594E00E94CE0584E594E00E94CE0557
:102ED0008EE494E00E94CE05E0917704F0917804AE
:102EE00023853485A2E3B0E00E940B1B4AE00E94D8
:102EF0003A088BE494E00E94CE058091760480FF2E
:102F00000CC080915C0490915D04A0915E04B0912E
:102F10005F04892B8A2B8B2B41F18EE394E00E9476
:102F2000CE0560915C0470915D0480915E04909187
:102F30005F0440E10E943A0880E20E94E9056AE0ED
:102F400070E080917404909175040E947E0888E37B
:102F500094E00E94CE058091760487FF03C08DE245
:102F600094E028C882E294E025C80E94840824C81E
:102F700060E170E080915604909157040E947E08B1
:102F8000D6C888E895E00E94CE05F0C882E292E0BB
:102F90000E942D08F2E085E392E0BF1611F08EE367
:102FA00092E00E942D086AE070E0809160049091A8
:102FB00061040E947E0883E295E00E94CE056AE0EB
:102FC00070E080916204909163040E947E0880E228
:102FD00095E00E94CE056AE070E0809164049091D3
:102FE00065040E947E088DE195E00E94CE056AE0AE
:102FF00070E080916604909167040E947E088AE1E7
:1030000095E00E94CE056AE070E08091680490919E
:1030100069040E947E0887E195E00E94CE056AE07F
:1030200070E080916A0490916B040E947E0822E017
:1030300087E795E0B21689F082E795E00E94CE0519
:1030400060915C0470915D0480915E0490915F04D6
:1030500040E10E943A088FE695E00E94CE056AE0C2
:1030600070E080917404909175040E947E0880E65F
:1030700095E00E94CE058091760487FF06C08DE41E
:103080000E94E9058EE295E07ECF8CE4F9CF82358F
:103090009105D1F18A35910529F04C97F9F40E94F8
:1030A000CE081CC070E060E08FE494E00E940E0641
:1030B00066E970E080E090E00E94AE046AE570E0AE
:1030C0008FE494E00E940E0665E070E080E090E0FE
:1030D0000E94AE0484E492E00E94940865E070E0EF
:1030E00080E090E00E94AE0480E090E0892B11F433
:1030F0000C94DC0D0E944B05882311F40C94DC0D1C
:103100000E9400000C94D80D6091F0017091F101C3
:103110006B3071051CF3685071097093F101609375
:10312000F0018CE494E00E940E0662E370E080E01F
:1031300090E00E94AE048AE492E0CECF6091F0016C
:103140007091F1016F3A71054CF6685F7F4F709393
:10315000F1016093F0018CE494E00E940E0662E3BA
:1031600070E080E090E00E94AE048DE492E0B4CF85
:1031700064EB70E089E494E00E940E0664EB73E077
:1031800080E090E00E94AE046AE570E089E494E09B
:103190000E940E0665E070E080E090E00E94AE04C0
:1031A00087E592E00E94940886E090E09093B60252
:1031B0008093B50262E370E080E090E00E94AE048C
:1031C0008DCF88E692E00E9494081092B602109289
:1031D000B5022AE5422E512C8091B5029091B6029B
:1031E00006970CF009C15092F1014092F0016AE596
:1031F00070E08CE494E00E940E0661E970E08FE4D8
:1032000094E00E940E0660E971E080E090E00E9488
:10321000AE046AE570E08FE494E00E940E060E941E
:103220004F1A23E030E040E050E00E94D91A9B01A1
:10323000AC012F5F3F4F4F4F5F4FA8ECB0E00E94B3
:10324000F81A0E94AE040E944F1A26E030E040E0D7
:1032500050E00E94D91A672B682B692B09F072C0C5
:1032600068E572E080E090E00E94AE040E944F1A90
:1032700022E030E040E050E00E94D91A672B682B32
:10328000692B09F056C08FE792E00E9494080091E4
:10329000F0011091F10138013FE0630E711C92E0E2
:1032A000C92ED12C580150E1A50EB11C480161E096
:1032B000861A91087801EA14FB0499F0B7018CE4AE
:1032C00094E00E940E0665E070E080E090E00E94CD
:1032D000AE048FEFE81AF80AEECFCC24C394D12CB9
:1032E000E9CF62E370E080E090E00E94AE047301F9
:1032F000E814F90479F0B7018CE494E00E940E061A
:1033000065E070E080E090E00E94AE0491E0E91A90
:10331000F108EECF62E370E080E090E00E94AE043E
:10332000CA94CD28D1F662E370E080E090E00E947C
:10333000AE040E94CE0862E370E080E090E00E945C
:10334000AE044ACF0E944F1A26E030E040E050E041
:103350000E94D91A653071058105910509F047C0B1
:103360006CEB72E080E090E00E94AE0483E892E0B3
:103370000E94940802E010E066E970E08FE494E0B7
:103380000E940E066AEA70E080E090E00E94AE04BF
:103390006AE570E08FE494E00E940E0662E370E05C
:1033A00080E090E00E94AE046EE170E08FE494E073
:1033B0000E940E066AEA70E080E090E00E94AE048F
:1033C0006AE570E08FE494E00E940E0662E370E02C
:1033D00080E090E00E94AE040130110529F46CE217
:1033E00071E080E090E0ABCF01E010E0C5CF6CEB86
:1033F00072E080E090E0A3CF6AE570E08FE494E0B3
:103400000E940E066BCE8F929F92AF92BF92CF9288
:10341000DF92EF92FF92CF93DF93EC016881798185
:103420008A819B81611571058105910521F464E212
:1034300079ED8BE597E02DE133EF41E050E00E941C
:10344000D91A49015A019B01AC01A7EAB1E40E94D3
:10345000F81A6B017C01ACEEB4EFA50194010E9457
:10346000061BC60ED71EE81EF91EF7FE06C081E039
:10347000C81AD108E10880E8F80AC882D982EA822D
:10348000FB82C701B6019F77DF91CF91FF90EF904C
:10349000DF90CF90BF90AF909F908F9008958F92C4
:1034A0009F92AF92BF92CF92DF92EF92FF92609184
:1034B000F2017091F3018091F4019091F501611591
:1034C00071058105910521F464E279ED8BE597E0C2
:1034D0002DE133EF41E050E00E94D91A49015A0131
:1034E0009B01AC01A7EAB1E40E94F81A6B017C01D0
:1034F000ACEEB4EFA50194010E94061BC60ED71EC8
:10350000E81EF91EF7FE06C081E0C81AD108E108DE
:1035100080E8F80AC092F201D092F301E092F4013F
:10352000F092F501C701B6019F77FF90EF90DF9011
:10353000CF90BF90AF909F908F9008956093F201CD
:103540007093F3018093F4019093F5010895DB01EA
:103550008F939F930E94F81ABF91AF91A29F800D05
:10356000911DA39F900DB29F900D11240895A1E28B
:103570001A2EAA1BBB1BFD010DC0AA1FBB1FEE1FED
:10358000FF1FA217B307E407F50720F0A21BB30B38
:10359000E40BF50B661F771F881F991F1A9469F7B4
:1035A00060957095809590959B01AC01BD01CF0110
:1035B0000895052E97FB1EF400940E94F01A57FD03
:1035C00007D00E94B71A07FC03D04EF40C94F01AEF
:1035D00050954095309521953F4F4F4F5F4F08953F
:1035E00090958095709561957F4F8F4F9F4F08956F
:1035F0000E940B1BA59F900DB49F900DA49F800D62
:10360000911D11240895B7FF0C94F81A0E94F81A1E
:10361000821B930B0895A29FB001B39FC001A39F8B
:10362000700D811D1124911DB29F700D811D1124FB
:10363000911D0895991B79E004C0991F961708F011
:10364000961B881F7A95C9F780950895AA1BBB1B06
:1036500051E107C0AA1FBB1FA617B70710F0A61B92
:10366000B70B881F991F5A95A9F780959095BC01B3
:10367000CD010895EE0FFF1F0590F491E02D099400
:10368000F894FFCF06002628236810F4012C06F4D6
:10369000012602806E00D609050026E02070100E7B
:1036A000022A060E020E02004100000013002680CE
:1036B0001180113002900630023002006E00B30912
:1036C0001D002638081C040E022A060E020E0200F7
:1036D000320000001C0026220B220BEE026608EED0
:1036E00002EE02806E0000001A00269E0002049E78
:1036F0000029029E000701006E000000190026F656
:1037000003BC050802BC050802D401004B00000000
:103710001B00261F015D033E023E021F015D038068
:103720006E00000017002860095802B004580258C3
:10373000025802002D00000004002604010C0304BE
:10374000011C0704010C03006E0000000C00258022
:103750000DC006B0011005B001B0010082000000EC
:10376000080026002380113002900630023002004B
:103770006E00D60964000100000000000000810511
:10378000E1040E05EE053F051D0531050D0A004655
:103790006972696E67200020646172747321004849
:1037A0004F4D494E470050756C73654469737461A1
:1037B0006E636557696474680046726F6D4172721A
:1037C00061792833382C200052494748540055501D
:1037D00000444F574E004C45465400464952494E0E
:1037E0004720414C4C20444152545300454E5445CF
:1037F00052494E4720524F554C45545445204D4F49
:0A380000444500594553004E4F00A7
:107E0000112484B714BE81FFF0D085E080938100F7
:107E100082E08093C00088E18093C10086E0809377
:107E2000C20080E18093C4008EE0C9D0259A86E02C
:107E300020E33CEF91E0309385002093840096BBD3
:107E4000B09BFECF1D9AA8958150A9F7CC24DD24C4
:107E500088248394B5E0AB2EA1E19A2EF3E0BF2EE7
:107E6000A2D0813461F49FD0082FAFD0023811F036
:107E7000013811F484E001C083E08DD089C08234E0
:107E800011F484E103C0853419F485E0A6D080C0E4
:107E9000853579F488D0E82EFF2485D0082F10E0AE
:107EA000102F00270E291F29000F111F8ED06801E7
:107EB0006FC0863521F484E090D080E0DECF843638
:107EC00009F040C070D06FD0082F6DD080E0C81688
:107ED00080E7D80618F4F601B7BEE895C0E0D1E017
:107EE00062D089930C17E1F7F0E0CF16F0E7DF06D8
:107EF00018F0F601B7BEE89568D007B600FCFDCFD4
:107F0000A601A0E0B1E02C9130E011968C91119780
:107F100090E0982F8827822B932B1296FA010C0160
:107F200087BEE89511244E5F5F4FF1E0A038BF0790
:107F300051F7F601A7BEE89507B600FCFDCF97BE46
:107F4000E89526C08437B1F42ED02DD0F82E2BD052
:107F50003CD0F601EF2C8F010F5F1F4F84911BD097
:107F6000EA94F801C1F70894C11CD11CFA94CF0C13
:107F7000D11C0EC0853739F428D08EE10CD085E9AC
:107F80000AD08FE07ACF813511F488E018D01DD067
:107F900080E101D065CF982F8091C00085FFFCCF94
:107FA0009093C60008958091C00087FFFCCF809118
:107FB000C00084FD01C0A8958091C6000895E0E648
:107FC000F0E098E1908380830895EDDF803219F02E
:107FD00088E0F5DFFFCF84E1DECF1F93182FE3DFCA
:107FE0001150E9F7F2DF1F91089580E0E8DFEE27F6
:047FF000FF270994CA
:027FFE00040479
:00000001FF
