:020000040000FA
:100000000C9481030C94A9030C94A9030C94A903E8
:100010000C94A9030C94A9030C94A9030C94A903B0
:100020000C94580B0C94A9030C94A9030C949C0AEF
:100030000C94A9030C94A9030C94A9030C94A90390
:100040000C94FA090C94A9030C946A0A0C94440ABF
:100050000C94A9030C94A9030C94A9030C94A90370
:100060000C94A9030C94A903464153540057687992
:100070006E746572004D6167695175657374004CEB
:1000800065676F00426F7365576176650042616E08
:1000900067264F6C756673656E00536F6E790053FB
:1000A000686172700053616D73756E674C470053E1
:1000B000616D73756E6734380053616D73756E676B
:1000C0000052433600524335004B617365696B79CA
:1000D0006F5F4D697473756269736869004B617312
:1000E00065696B796F5F4A5643004B617365696B55
:1000F000796F5F5368617270004B617365696B79EA
:100100006F5F44656E6F6E004B617365696B796FED
:100110000050616E61736F6E6963004F6E6B796F33
:10012000004E454332004E4543004C4732004C4799
:10013000004A56430044656E6F6E004170706C65F6
:100140000050756C736544697374616E636500502B
:10015000756C7365576964746800554E4B4E4F5704
:100160004E00486173682000556E69766572736150
:100170006C2050756C73652044697374616E63659F
:100180002057696474682C20004D6167695175655A
:1001900073742C2000426F736577617665202C2084
:1001A000004C65676F20506F7765722046756E63EF
:1001B00074696F6E732C20005768796E7465722CA9
:1001C0002000464153542C200053616D73756E67B7
:1001D0002C20004A56432C20004C472C2000524330
:1001E000362C20005243352C2000536F6E792C2082
:1001F0000044656E6F6E2F53686172702C20005042
:10020000616E61736F6E69632F4B617365696B79A2
:100210006F2C20004E45432F4E4543322F4F6E6BBF
:10022000796F2F4170706C652C20006174207069AB
:100230006E203900526561647920746F20726563A5
:1002400065697665204952207369676E616C732019
:100250006F662070726F746F636F6C733A20005317
:1002600054415254202F55736572732F64616E6927
:10027000656C746F6D706B696E732F446F63756D11
:10028000656E74732F41726475696E6F2F49527475
:10029000757272657453746172746572436F6465CC
:1002A0002F495274757272657453746172746572F9
:1002B000436F64652E696E6F2066726F6D204170AA
:1002C0007220313020323032340D0A5573696E6736
:1002D000206C6962726172792076657273696F6EE3
:1002E00020342E322E3100496620796F75206765E3
:1002F0007420756E657870656374656420726573CB
:10030000756C74732C2074727920746F20696E631D
:10031000726561736520746865205245434F52448D
:100320005F4741505F4D4943524F5320696E20490A
:100330005272656D6F74652E682E00427574206967
:10034000742063616E206265204F4B20666F7220BF
:10035000736F6D652079657420756E737570706F3D
:10036000727465642070726F746F636F6C732C208D
:10037000616E6420657370656369616C6C79206679
:100380006F7220726570656174732E002075732022
:100390006B6E6F776E20666F7220696D706C656D25
:1003A000656E7465642070726F746F636F6C732018
:1003B0006C696B65204E45432C20536F6E792C2061
:1003C000524325206574632E2E00207573206265CC
:1003D000747765656E2074776F20646574656374E7
:1003E0006564207472616E736D697373696F6E20DA
:1003F000697320736D616C6C6572207468616E2026
:10040000746865206D696E696D616C20676170202C
:100410006F6620005370616365206F662000204C7A
:10042000534220666972737400204D5342206669FE
:1004300072737400206269747300205261772D44D6
:100440006174613D307800757300206761703D0014
:10045000526570656174004175746F2D0020546F92
:1004600067676C653D310020506172697479206660
:1004700061696C002045787472613D3078002043DA
:100480006F6D6D616E643D3078002041646472650B
:1004900073733D30780020626974732028696E633D
:1004A0006C2E2067617020616E64207374617274B9
:1004B0002920726563656976656400204861736808
:1004C0003D30780050726F746F636F6C3D004F76F3
:1004D0006572666C6F77005A014F0141013B01352F
:1004E0000131012E012A01260121011B0111010800
:1004F00001F900EA00DD00C900C500C100B900AF84
:1005000000A5009F009A008D0084007F0075006D9B
:100510000068002C20002C20002C20002C20002C17
:100520002000293B002C2030780053425F4649527E
:1005300053542C203C526570656174506572696F2C
:10054000644D696C6C69733E2C203C6E756D626500
:10055000724F66526570656174733E002C20505274
:100560004F544F434F4C5F49535F002C20002C20C9
:100570003078002C202674526177446174615B30BE
:100580005D2C20002C203C6E756D6265724F6652AA
:100590006570656174733E002C20322C20002C2085
:1005A0003078002830780020497253656E64657297
:1005B0002E73656E6400202020007D3B002C2030CF
:1005C00078002020202075696E7433325F742074A7
:1005D000526177446174615B5D3D7B3078005365A7
:1005E0006E6420776974683A00202B00202D005D2E
:1005F0003A2000726177446174615B005265636503
:1006000069766564206E6F697365206F7220616E14
:1006100020756E6B6E6F776E20286F72206E6F7410
:100620002079657420656E61626C65642920707242
:100630006F746F636F6C202D20696620796F752051
:100640007769736820746F206164642074686973CB
:1006500020636F6D6D616E642C20646566696E65E4
:100660002069742061742074686520746F70206F35
:1006700066207468652066696C65207769746820F7
:100680007468652068657820636F6465207072699E
:100690006E7465642062656C6F77202865783A20F7
:1006A000307838290000000008000201000003042F
:1006B00007000000000000000000000000250028E6
:1006C000002B0000000000240027002A000000008A
:1006D0000023002600290004040404040404040286
:1006E00002020202020303030303030102040810CF
:1006F000204080010204081020010204081020009C
:10070000730C11241FBECFEFD8E0DEBFCDBF12E0C7
:10071000A0E0B1E0E8E8F4E302C005900D92AC354A
:10072000B107D9F724E0ACE5B2E001C01D92A835CD
:10073000B207E1F713E0C1E8D3E004C02197FE015E
:100740000E943C1AC038D107C9F70E94B60C0C941D
:10075000421A0C940000CF93DF938093330390E010
:100760009C012551394FF901449140933603895238
:10077000994FFC014491E42FF0E0EE0FFF1FE3538B
:10078000F94F459154915093350340933403F90147
:100790002491FC0184918823B9F090E0880F991F7F
:1007A000FC01ED53F94FC591D491FC01E754F94F89
:1007B000A591B4919FB7F89488812095822388836E
:1007C0008C9128232C939FBFDF91CF910895E091C6
:1007D0004B04F0914C04238534852817390728F4FD
:1007E00080914A04816080934A0408950F931F9377
:1007F000CF93DF93E0914B04F0914C04409194022D
:10080000828510E0481708F064C0142F1170009121
:10081000930201114FC0842F90E0880F991FE80FB9
:10082000F91F0384F485E02D2CEE3FEF112311F026
:1008300024E130E0C0919102D09192022C0F3D1F33
:10084000C90163E470E00E94281AE617F70760F018
:10085000C90168E270E00E94281A6F5F7F4F81E053
:1008600090E06E177F0710F52C0F3D1FC90163E460
:1008700070E00E94281AE617F70750F0C90168E2F5
:1008800070E00E94281A6F5F7F4F6E177F0760F439
:100890002C0F3D1FC90163E470E00E94281AE6177F
:1008A000F707E8F41FEF15C082E090E09093900204
:1008B00080938F020F5F0093930280918F0290913B
:1008C00090020817190628F0109293024F5F409388
:1008D0009402812FDF91CF911F910F910895C9014B
:1008E00068E270E00E94281A6F5F7F4F6E177F07E3
:1008F000C8F283E090E0DACF90E0FC01EB55F94FCD
:100900002491FC01E551F94F3491FC01E952F94F72
:10091000E491EE23C9F0222339F0233001F1A8F449
:10092000213019F1223029F1F0E0EE0FFF1FE754DA
:10093000F94FA591B4918FB7F894EC91611126C04D
:1009400030953E233C938FBF08952730A9F028307F
:10095000C9F0243049F7809180008F7D03C08091D9
:1009600080008F7780938000DFCF84B58F7784BD40
:10097000DBCF84B58F7DFBCF8091B0008F778093E4
:10098000B000D2CF8091B0008F7DF9CF3E2BDACF6F
:100990003FB7F8948091870290918802A0918902D4
:1009A000B0918A0226B5A89B05C02F3F19F0019689
:1009B000A11DB11D3FBFBA2FA92F982F8827BC01B9
:1009C000CD01620F711D811D911D42E0660F771FE1
:1009D000881F991F4A95D1F708958F929F92AF92E1
:1009E000BF92CF92DF92EF92FF926B017C010E9447
:1009F000C8044B015C01C114D104E104F104B9F055
:100A00000E94C804681979098A099B09683E7340E5
:100A10008105910580F321E0C21AD108E108F108AF
:100A200088EE880E83E0981EA11CB11CE4CFFF90D5
:100A3000EF90DF90CF90BF90AF909F908F900895F0
:100A4000AF92BF92CF92DF92EF92FF920F931F93DC
:100A5000CF93DF936C017B018B01040F151FEB011A
:100A60005E01AE18BF08C017D10759F06991D601D1
:100A7000ED91FC910190F081E02DC6010995892B43
:100A800079F7C501DF91CF911F910F91FF90EF9002
:100A9000DF90CF90BF90AF900895FC01538D448DAF
:100AA000252F30E0842F90E0821B930B541710F019
:100AB000CF96089501970895FC01918D828D981726
:100AC00061F0A28DAE0FBF2FB11D5D968C91928DFE
:100AD0009F5F9F73928F90E008958FEF9FEF08952F
:100AE000FC01918D828D981731F0828DE80FF11DF8
:100AF000858D90E008958FEF9FEF0895FC01918D13
:100B0000228D892F90E0805C9F4F821B91098F730B
:100B10009927089585E992E00E947E0521E0892BBE
:100B200009F420E0822F089580E090E0892B29F0DD
:100B30000E948A0581110C9400000895FC01A48D87
:100B4000A80FB92FB11DA35ABF4F2C91848D90E0EF
:100B500001968F739927848FA689B7892C93A089D2
:100B6000B1898C91837080648C93938D848D98135C
:100B700006C00288F389E02D80818F7D80830895EF
:100B8000EF92FF920F931F93CF93DF93EC0181E0DD
:100B9000888F9B8D8C8D98131AC0E889F989808184
:100BA00085FF15C09FB7F894EE89FF896083E889B7
:100BB000F98980818370806480839FBF81E090E0A9
:100BC000DF91CF911F910F91FF90EF900895F62E36
:100BD0000B8D10E00F5F1F4F0F731127E02E8C8DD0
:100BE0008E110CC00FB607FCFACFE889F989808115
:100BF00085FFF5CFCE010E949E05F1CFEB8DEC0F66
:100C0000FD2FF11DE35AFF4FF0829FB7F8940B8F31
:100C1000EA89FB8980818062CFCF0F931F93CF93A6
:100C2000DF938C01D0E0C0E0F801EC0FFD1F649170
:100C3000662341F085E992E00E94C005892B11F0FE
:100C40002196F2CFCE01DF91CF911F910F910895A0
:100C5000682F85E992E00C94C005CF93DF93EC01F7
:100C6000888D8823B9F0AA89BB89E889F9898C9194
:100C700085FD03C0808186FD0DC00FB607FCF7CF50
:100C80008C9185FFF2CF808185FFEDCFCE010E9450
:100C90009E05E9CFDF91CF910895CF92DF92EF9239
:100CA000FF92CF93DF93EC01603282E07807CCF5BE
:100CB000653B710514F064EB70E0898128E830E051
:100CC000281B310987FD3395220F331F220F331F55
:100CD0006901330FEE08FF088A8128E532E0281BFE
:100CE000310987FD3395220F331F220F331F032E47
:100CF000000C440B550B2C193D094E095F09DB0113
:100D000077FF02C0B0E0A0E00E94051A24EB30E0BB
:100D100040E050E00E94DB19C20ED31EE41EF51E17
:100D2000B601E881EC3070F5298188E890E0821BFB
:100D3000910927FD9395880F991F880F991F6817B0
:100D400079077CF02A8188E592E0821B910927FDD2
:100D50009395880F991F880F991F681779070CF4CE
:100D6000CB010297880F991F4FB7F8942E2F30E0D0
:100D7000F901EE0FFF1FE20FF31FE25AFD4F9283BE
:100D800081834FBFDF91CF91FF90EF90DF90CF90A5
:100D90000895CF93DF93DC018C918C3008F06DC007
:100DA000CB01FB01E551F94F24918952994FFC0188
:100DB0008491882399F090E0880F991FFC01ED53EE
:100DC000F94FC591D491FC01E754F94F8591949165
:100DD0008FB7F894E881E22BE8838FBF8C91282F9E
:100DE00030E0F901EE0FFF1FE20FF31FE25AFD4F53
:100DF000962F9F736081607C692B608311961C9293
:100E0000119712961C9212972CE0622F0E941C1AC6
:100E1000829FB001112430E020E0AB01420F531F4C
:100E2000FA01EE0FFF1FE40FF51FE25AFD4F90810C
:100E300096FD16C02F5F3F4F2C30310571F78111A1
:100E40000FC01092800082E0809381001092850094
:100E500010928400B19A80916F00826080936F003D
:100E6000EC918E2F90E0FC01EE0FFF1FE80FF91FB1
:100E7000E25AFD4F8081806480838C91DF91CF9115
:100E800008958F929F92AF92BF92CF92DF92EF928E
:100E9000FF924B015C010E94C8046B017C0124E0BD
:100EA000C21AD108E108F1080E94C8046C197D0932
:100EB0008E099F09681579058A059B05A8F3FF909F
:100EC000EF90DF90CF90BF90AF909F908F9008955C
:100ED000FC019B0124513109C90163E470E00E94C7
:100EE000281AE617F70758F0C90168E270E00E9477
:100EF000281A6F5F7F4F81E06E177F0708F480E04C
:100F000008952F923F924F925F926F927F928F92AD
:100F10009F92AF92BF92CF92DF92EF92FF920F9388
:100F20001F93CF93DF9300D000D000D0CDB7DEB7B2
:100F3000382E6D835A013C832B8348012E2C9A0155
:100F40002C5E3F4FC90163E470E00E94281A8B01B8
:100F5000C90168E270E00E94281A9B012F5F3F4F91
:100F60003A8329835D81452F50E0440F551F455F2B
:100F70005F4F80914B0490914C04480F591F5E8342
:100F80004D83412C512C32014394C12CD12C76013C
:100F90003320B9F18B819C81A816B906E1F4B40124
:100FA000ED81FE81828193810E946807222011F1E8
:100FB000CC0CDD1CEE1CFF1C882311F06894C0F8DB
:100FC000440C551C661C771C3A948D819E810496B6
:100FD0009E838D83DDCFED81FE81208131812017BD
:100FE000310730F081E049815A8142175307F0F60A
:100FF00080E0DCCF882321F3C428D528E628F72811
:10100000DFCFC0923004D0923104E0923204F092EB
:10101000330481E026960FB6F894DEBF0FBECDBF35
:10102000DF91CF911F910F91FF90EF90DF90CF90C4
:10103000BF90AF909F908F907F906F905F904F90F8
:101040003F902F900895EF920F931F93FC01862FEE
:10105000642FEE24E3949785911101C0E12C018562
:10106000128523853485478150850E9481071F9111
:101070000F91EF9008950F931F93CF93DF93EC019F
:10108000E0914B04F0914C04058516852B813C8141
:101090002C5E3F4FC90163E470E00E94281A0617D6
:1010A0001707A0F0C90168E270E00E94281A6F5F7C
:1010B0007F4F6017710750F06D817E818785908921
:1010C000DF91CF911F910F910C94680780E0DF9121
:1010D000CF911F910F910895FC0101900020E9F735
:1010E0003197AF01481B590BBC0185E992E00C9484
:1010F00020058F929F92AF92BF920F931F93CF9331
:10110000DF93CDB7DEB7A1970FB6F894DEBF0FBE61
:10111000CDBF19A2423008F44AE08E010F5D1F4F87
:10112000842E912CB12CA12CA50194010E94B919F7
:10113000E62FB901CA01EA30F4F4E05DD801EE937C
:101140008D01232B242B252B79F790E080E010973D
:1011500019F0CD010E946C08A1960FB6F894DEBF7D
:101160000FBECDBFDF91CF911F910F91BF90AF9078
:101170009F908F900895E95CE1CF462FBC0190E0ED
:1011800080E00C94790884E092E00C946C08CF9392
:10119000DF930E940D06EC010E94C3088C0F9D1F77
:1011A000DF91CF910895CF93DF930E946C08EC01FB
:1011B0000E94C3088C0F9D1FDF91CF910895CF929D
:1011C000DF92EF92FF92CF93DF936C01990FEE08BD
:1011D000FF08F7FE17C08DE20E942806EC01662783
:1011E0007727CB016C197D098E099F094AE00E947F
:1011F00079088C0F9D1FDF91CF91FF90EF90DF90CA
:10120000CF9008954AE0C701B601DF91CF91FF90DA
:10121000EF90DF90CF900C9479088091260488237A
:1012200019F060E00C947C042D980895882349F00F
:1012300080912604882319F061E00C947C042D9A97
:1012400008950C940D094F925F926F927F928F9246
:101250009F92AF92BF92CF92DF92EF92FF92CF9385
:10126000DF93CDB7DEB72C970FB6F894DEBF0FBE75
:10127000CDBF7C010E94C80469837A838B839C83E1
:101280004B015C0120E0B0E0A0E0A701BD014552A8
:101290005109610971094D835E836F837887A701C6
:1012A000BD01475051096109710949875A876B8708
:1012B0007C87F8945B9A80918D0290918E028230A7
:1012C000910538F0880F991F880F991F059701978E
:1012D000F1F75B987894211107C080912704823040
:1012E00019F481E00E94160980918B0290918C0282
:1012F000880E991EA11CB11CF8940E94C8042B01F1
:101300003C016B0169817A81C61AD70AF12CE12C64
:101310008D819E81AF81B885C816D906EA06FB0685
:1013200034F080912704823011F40E940D09498520
:101330005A856B857C85C416D506E606F706B4F09B
:1013400078942C960FB6F894DEBF0FBECDBFDF9118
:10135000CF91FF90EF90DF90CF90BF90AF909F9094
:101360008F907F906F905F904F90089521E0481488
:1013700059046A047B0408F4C0CF9BCFEBE8F2E089
:101380008AE190E09183808388E090E09383828378
:10139000539A80E891E10E94230960E871E180E0BE
:1013A00090E00E94410780E392E00E94230960E3FD
:1013B00072E080E090E00E94410780E392E00C94AC
:1013C0002309EBE8F2E08AE190E09183808388E0F2
:1013D00090E093838283539A80E093E20E942309F2
:1013E00060EC78E080E090E00E94410780E392E0CA
:1013F0000C9423091F920F920FB60F9211242F9372
:101400003F938F939F93AF93BF938091830290916B
:101410008402A0918502B09186023091820223E07D
:10142000230F2D3758F50196A11DB11D209382027F
:101430008093830290938402A0938502B0938602E6
:101440008091870290918802A0918902B0918A02CE
:101450000196A11DB11D8093870290938802A093ED
:101460008902B0938A02BF91AF919F918F913F9172
:101470002F910F900FBE0F901F90189526E8230F05
:101480000296A11DB11DD2CF1F920F920FB60F92DF
:1014900011242F933F934F935F936F937F938F9379
:1014A0009F93AF93BF93EF93FF9385E992E00E94E0
:1014B0009E05FF91EF91BF91AF919F918F917F9189
:1014C0006F915F914F913F912F910F900FBE0F90B1
:1014D0001F9018951F920F920FB60F9211242F9301
:1014E0008F939F93EF93FF93E091A502F091A60253
:1014F0008081E091AB02F091AC0282FD1BC0908133
:101500008091AE028F5F8F732091AF02821741F0FE
:10151000E091AE02F0E0EB56FD4F958F8093AE0266
:10152000FF91EF919F918F912F910F900FBE0F9090
:101530001F9018958081F4CF1F920F920FB60F92D3
:1015400011242F933F934F935F936F937F938F93C8
:101550009F93AF93BF93CF93DF93EF93FF938091CC
:101560005C02C0915D02D0E087FF24C0109285002C
:101570001092840080915C028F5F80935C02809166
:101580005C02082E000C990B8C179D0724F48091A7
:101590005C028C30C4F180918400909185000496A7
:1015A00080349C4908F47AC0809184009091850031
:1015B000049676C080915C02082E000C990B8C1763
:1015C0009D07C4F6E0915C028E2FEE0F990BFC0193
:1015D000EE0FFF1FE80FF91FE25AFD4F808186FFD3
:1015E000C9CFE0915C028E2FEE0F990BFC01EE0F3C
:1015F000FF1FE80FF91FE25AFD4F808160E08F73F3
:101600000E947C04B7CF2091840030918500E09146
:101610005C028E2FEE0F990BFC01EE0FFF1FE80FFF
:10162000F91FE25AFD4F81819281820F931F90939F
:10163000890080938800E0915C028E2FEE0F990B59
:10164000FC01EE0FFF1FE80FF91FE25AFD4F8081EA
:1016500086FF11C0E0915C028E2FEE0F990BFC010A
:10166000EE0FFF1FE80FF91FE25AFD4F808161E086
:101670008F730E947C04FF91EF91DF91CF91BF9116
:10168000AF919F918F917F916F915F914F913F911A
:101690002F910F900FBE0F901F90189580E49CE93A
:1016A00090938900809388008FEF80935C02E3CF52
:1016B0001F920F920FB60F9211242F933F934F93C7
:1016C0005F936F937F938F939F93AF93BF93CF93CA
:1016D000EF93FF93E0913403F0913503C081809143
:1016E0003603C8238091370390913803019649F05F
:1016F000809137039091380301969093380380933B
:1017000037038091320381111DC0C1116EC08091D9
:101710003703909138038536910578F010923B039A
:10172000809137039091380390933E0380933D035B
:1017300081E080933C03809332031092380310922F
:10174000370353C0809132038130A9F4CC2309F4CC
:101750004CC0E0913C038E0F80933C038091370393
:1017600090913803F0E0EE0FFF1FEE5CFC4F948782
:10177000838782E0E0CF80913203823009F04FC04E
:10178000C11122C0E0913C0381E0E03768F0809312
:101790003B0383E080933203E0913903F0913A03F5
:1017A000309759F20995C9CF8E0F80933C038091F1
:1017B000370390913803F0E0EE0FFF1FEE5CFC4F13
:1017C0009487838781E0B7CF809137039091380366
:1017D0008536910550F083E080933203E091390320
:1017E000F0913A03309709F00995809127048130F0
:1017F00021F4C11180E00E941609FF91EF91CF9171
:10180000BF91AF919F918F917F916F915F914F9118
:101810003F912F910F900FBE0F901F9018958091C0
:101820003203833011F7C111E0CF87CFEF92FF92DF
:101830000F931F93CF93DF93EC01F62F8A01790169
:1018400090E080E030E0E0E0DE01AE0FB11D2C91D1
:10185000222341F0320F2E9F800D911D11241C92E6
:10186000FE1315C0332399F0532F5695850F911D04
:10187000632F70E00E94281ADE01A60FB11D3C9371
:10188000D8013C9131110EC06C9390E080E0EF5F85
:10189000FE17D0F681E0DF91CF911F910F91FF905D
:1018A000EF900895D7013C91332371F380E0F3CF9B
:1018B000FC0190915D029C3098F481E0890F809347
:1018C0005D029083892F90E0FC01EE0FFF1FE80F6F
:1018D000F91FE25AFD4F88EB9BE0928381830895C4
:1018E0008FEF80830895E5E9F2E01382128288EE9B
:1018F00093E0A0E0B0E084839583A683B78386EF6E
:1019000091E09183808385EC90E09587848784ECD7
:1019100090E09787868780EC90E0918B808B81ECBC
:1019200090E0938B828B82EC90E0958B848B86EC9D
:1019300090E0978B868B118E128E138E148E82E31D
:1019400093E090934C0480934B0480E00E94AB039F
:101950001092260483E294E00E94580C80E294E006
:101960000E94580C8DE194E00C94580CCF93DF93B7
:10197000CDB7DEB7E7970FB6F894DEBF0FBECDBF89
:10198000789484B5826084BD84B5816084BD85B55A
:10199000826085BD85B5816085BD80916E00816066
:1019A00080936E001092810080918100826080930C
:1019B000810080918100816080938100809180000E
:1019C0008160809380008091B10084608093B10039
:1019D0008091B00081608093B00080917A00846033
:1019E00080937A0080917A00826080937A0080915F
:1019F0007A00816080937A0080917A008068809379
:101A00007A001092C100E091A502F091A60212E0C6
:101A10001083E091A102F091A2021082E091A30252
:101A2000F091A4028FEC80831092AD02E091A902A4
:101A3000F091AA0286E08083E091A702F091A802CB
:101A4000808180618083E091A702F091A80280816B
:101A500088608083E091A702F091A802808180686D
:101A60008083E091A702F091A80280818F7D80831E
:101A70006AE070E083E294E00E94C9066BE070E0E7
:101A800080E294E00E94C9066CE070E08DE194E091
:101A90000E94C9068FE592E00E94C70889E00E9473
:101AA000AB03109226048091270481608093270461
:101AB000259A1093B0001093B10084E68093B30090
:101AC0008093B4001092B20080913203833011F4FD
:101AD0001092320384E08093700084E392E00E94CD
:101AE0000D0684E192E00E940D068FEF91E00E94C6
:101AF0000D0681EF91E00E940D068AEE91E00E94B2
:101B00000D0684EE91E00E940D068EED91E00E949C
:101B10000D0689ED91E00E940D0683ED91E00E9493
:101B20000D0689EC91E00E940D0682EC91E00E9486
:101B30000D0688EB91E00E940D0681EA91E00E947B
:101B40000D0685E991E00E940D0689E891E00E946A
:101B50000D0688E691E00E940D0682E691E00E9463
:101B60000D068BE292E00E94C7086AE570E083E20E
:101B700094E00E944D0664E170E080E090E00E94F5
:101B8000ED046AE570E08DE194E00E944D0664E6A4
:101B900070E080E090E00E94ED0464E670E080E296
:101BA00094E00E944D0664E670E080E090E00E94C0
:101BB000ED0484E690E09093F1018093F00187E0DA
:101BC00092E00E94D3089E012F5F3F4F1901809140
:101BD0003203833011F00C94DF1880913B0388238B
:101BE00009F458C080E480934A04109229041092AA
:101BF000280410922D0410922C0410922B041092A1
:101C00002A0410923004109231041092320410927F
:101C10003304109249041092480480914A0486FDCE
:101C2000D2C1E0914B04F0914C042285822F8F7B2E
:101C3000843009F0BBC085859685865891098C351E
:101C4000910508F0B3C087859089243009F049C018
:101C50008197489708F0AAC08189928908970897C8
:101C600008F0A4C081E080934A0480914F049091D1
:101C7000500490932B0480932A04809153049091F4
:101C8000540490932D0480932C0480914D049091E2
:101C90004E0464C010924A04809128049091290453
:101CA00090934E0480934D0480912C0490912D04C8
:101CB000B0E0A0E08093530490935404A0935504A3
:101CC000B093560480912A0490912B04B0E0A0E0D8
:101CD00080934F0490935004A0935104B093520406
:101CE00084CF825491098F9708F060C043E060E28E
:101CF0008CED91E00E942308882309F457C02091BD
:101D00003004909131046091320480913304462F65
:101D100050E050932D0440932C04422F592F4E3EF7
:101D200037E8530701F523E030E03093290420938E
:101D3000280490E090932B0480932A0480E290E0A2
:101D400090934904809348048AE795E00E94E70352
:101D500080914A0480FF33C189E090E09093290488
:101D6000809328042CC19095291310C030E0309343
:101D70002B0420932A04982F909569130CC088E0B7
:101D800090E09093290480932804D8CF50932B049B
:101D900040932A04F0CF2AE030E0309329042093C6
:101DA000280460932C0480932D04C8CFE0914B0449
:101DB000F0914C048285843609F08FC088EC91E064
:101DC0000E943B08882309F488C043E060E188EC66
:101DD00091E00E942308882309F47FC0D09030044A
:101DE0000D2D10913104BBE0EB2EF12C023050E2AE
:101DF0001507F9F0AEE0EA2EF12C0A3A8AE5180749
:101E0000C1F0FDE0EF2EF12C043592E3190789F0C3
:101E1000EFE0EE2EF12C0330E1E01E0751F080E1FF
:101E2000E82EF12C0332FBEC1F0719F07CE0E72EC3
:101E3000F12C43E260E288EC91E00E9423088823C1
:101E400009F44BC0D1268091300490913104A091C7
:101E50003204B09133049C0164E0369527956A956D
:101E6000E1F730932B0420932A042A2F30E030939B
:101E70002D0420932C04382F3A2739272D2D229515
:101E80002F702D252F70482F4F70241719F024E044
:101E900020934A042CE0E216F10449F420914A040C
:101EA000206120934A0410932F0400932E043B17C3
:101EB00029F080914A04846080934A0480E390E092
:101EC0009093490480934804F0922904E0922804F6
:101ED0008AE397E00E94E70372C0E0914B04F0911F
:101EE0004C048285803209F00AC241E06FE084EB45
:101EF00091E00E942308882309F401C2E0914B0479
:101F0000F0914C04DF01A75BBF4F8D919C9104972A
:101F1000059708F0F4C18091300490913104A091AC
:101F20003204B09133049C012F71332730932B047A
:101F300020932A0455E0B695A795979587955A95CD
:101F4000D1F7492F43709C01332730932D04209300
:101F50002C04238534852536344008F0C8C12091EF
:101F600057042F5F20935704223018F021E020936C
:101F70004A0490FF14C020914A04322F32603093FB
:101F80004A0430915304509154048095831719F0FA
:101F9000266020934A0430932C0450932D04415022
:101FA000423008F0A9C186E190E090932904809323
:101FB00028048FE090E09093490480934804809136
:101FC0004A0486FF69C78EEC94E00E94C70880919E
:101FD0002804909129040097A1F1039794F5E091CA
:101FE0004B04F0914C04838594858C32914048F5E4
:101FF0000E94C30884E194E00E940D06E0914B0426
:10200000F0914C0423853485A2E3B0E00E940D1AC0
:102010004AE00E9479088AEC93E00E940D0688E964
:102020009AE30E94DF088CE893E00E94C7088BE3E4
:1020300093E00E94C70887EE92E00E94C7080E94C2
:10204000C3088091280490912904892B09F4B5C014
:1020500080914A04837009F0B0C08EED95E00E9433
:102060000D0680912804909129040197B12C0297C4
:10207000F0F58091480490914904019775E0969598
:1020800087957A95E1F7BB24B394B80E21E02B1520
:1020900070F50E94C30882EC95E00E940D0660E492
:1020A000E62E64E0F62E10E000E08B2D8150990BB7
:1020B0006C01F70161917191819191917F0140E1F2
:1020C0000E947908C016D10621F08DEB95E00E94A0
:1020D0000D060F5F1F4F0B1560F38AEB95E00E9412
:1020E000C70886EB95E00E940D0652E0B52E87EA00
:1020F00095E00E940D06E0912804F0912904CF019B
:102100000197029708F4ADC7EE0FFF1FE952FB4F8E
:10211000859194910E940D0683EA95E00E940D0638
:1021200080912804909129044B9709F08CC7609105
:10213000300470913104809132049091330440E175
:102140000E9479088EE995E00E940D0660E170E03A
:1021500080912C0490912D040E94BD088091280448
:1021600090912904479709F077C788E995E00E9484
:102170000D066AE070E080914804909149040E9445
:10218000BD0880914A0484FF12C080912804909178
:1021900029040C9761F485E295E00E940D0660E148
:1021A00070E080912E0490912F040E94BD0882E27D
:1021B00095E00E940D060E94C3088091280490912A
:1021C0002904892B09F0E3C78CEF95E00E94C7082A
:1021D000E0914B04F0914C04928483EF95E00E94CF
:1021E0000D06692D70E090E080E04AE00E947908D9
:1021F0008FEE95E00E94C7088CEE95E00E940D06D8
:10220000E0914B04F0914C0423853485A2E3B0E0C7
:102210000E940D1A4AE00E9479080E94C30880912A
:102220002804909129048430910539F08631910574
:1022300021F036E0E32E4B9709F4E12C01E010E0A9
:10224000D12CC12CA92CB12CF02E091508F08FC768
:10225000E0914B04F0914C04C801880F991FE80FDE
:10226000F91F438554859A01A2E3B0E00E940D1A3C
:102270002B013C01C40ED51E302F3170832E00FD82
:1022800071C78DE20E94280658EE451653E05506A8
:1022900061047104ACF480E20E94280684E64816CA
:1022A00051046104710464F480E20E9428069AE0FB
:1022B00049165104610471041CF480E20E9428064E
:1022C0004AE0C301B2010E9479080F5F1F4F8820C6
:1022D00031F00A151B051CF48CE20E9428068F2D94
:1022E0008E0D877009F0B0CF0E94C308ADCF109259
:1022F0005704423009F457CE84E090E056CE80EA8D
:1023000091E00E943B08882309F44EC0E0914B0401
:10231000F0914C0482858A3129F08A3219F080329A
:1023200009F042C090E0BC016150710977FDBC0129
:102330007595679543E080EA91E00E942308882321
:1023400099F18091300490913104A0913204B091C0
:1023500033049C012F77332730932D0420932C04D2
:1023600037E0B695A795979587953A95D1F79093CD
:102370002B0480932A04E0914B04F0914C042285B5
:1023800030E0C901019797FDC90195958795909314
:1023900049048093480487E190E090932904809356
:1023A000280480EE91E096CD81E08093940289E745
:1023B00093E09093920280939102109293020E9474
:1023C000F603813009F063C0C12CD12C760110E0F6
:1023D000E0914B04F0914C0492858091940289170E
:1023E000E0F40E94F603082F0E94F60301110BC0CF
:1023F000813009F04CC0CC0CDD1CEE1CFF1C689435
:10240000C0F81F5FE5CF013009F041C081113FC026
:10241000CC0CDD1CEE1CFF1CF4CF812F90E09093C0
:10242000490480934804C0923004D0923104E09271
:102430003204F09233048C2D8F7390E090932D042E
:1024400080932C04960116E0369527951A95E1F7AE
:102450002F71332730932B0420932A0496012227CF
:102460003071232B31F4805C9F4F90932D04809327
:102470002C0480E8D3FC88E880934A0481E190E052
:1024800090932904809328048FEC99E023CDE09168
:102490004B04F0914C048585968588974D9708F0FC
:1024A00046C0878590890C970B9708F040C083E061
:1024B000809394028CEB91E090939202809391022E
:1024C000109293020E94F603813089F50E94F60370
:1024D00081112DC0C12CD12C760110E0E0914B046C
:1024E000F0914C04928580919402891708F082C083
:1024F0000E94F603B82E1330B1F00E94F603082FA5
:10250000133021F40E94F603081311C091E0B912B0
:1025100067C001110CC0CC0CDD1CEE1CFF1C6894C4
:10252000C0F81F5FDBCF0E94F603B81631F3E091CD
:102530004B04F0914C0422852C3311F0243099F493
:10254000858596858638910570F0833E910508F45F
:1025500097C08E58910968EB7BE007E010E0823667
:10256000910508F491C0E0914B04F0914C048285F0
:10257000823209F4EEC0843209F015C184E191E0A1
:102580000E943B08882309F40EC143E060E184E126
:1025900091E00E942308882309F405C1809130044A
:1025A00090913104A0913204B0913304492F5A2FF5
:1025B0006B2F772750932D0440932C0499279093E9
:1025C0002B0480932A0480E190E090934904809347
:1025D0004804E5E0F0E0F0932904E0932804EFCC10
:1025E000B110A5CF013009F0A2CFCC0CDD1CEE1C40
:1025F000FF1C97CF812F90E090934904809348046B
:10260000C0923004D0923104E0923204F09233044C
:102610002C2D30E08D2D143200F580E880934A0493
:1026200030932D0420932C048D2D90E090932B0457
:1026300080932A04E0FE03C088E880934A041531A1
:1026400028F080914A04806180934A0483E79AE0ED
:102650000E94E70382E190E081CB90E890934A04E6
:10266000D7FE03C098E890934A0430932D0420933A
:102670002C048F7790E090932B0480932A04E6CF6C
:1026800068E670E106E010E087859089243061F407
:102690004D97469708F067CF8189928907970897E9
:1026A00008F061CF81E8DFCA0E946807882309F437
:1026B0005ACF43E06CE180E091E00E942308882338
:1026C00009F451CF80E880934A04809130049091BE
:1026D0003104A0913204B0913304AC01BD01E4E0B7
:1026E0007695679557954795EA95D1F79A01509356
:1026F0002D0440932C04AC01BD01F4E1769567955F
:1027000057954795FA95D1F750932B0440932A0497
:1027100044E050E060E0722F7F70670F74E0369500
:1027200027957A95E1F741505109A9F786278F70CF
:102730009927AA27BB27892B8A2B8B2B19F084E892
:1027400080934A0410932904009328048CE190E0BC
:1027500032CC838594858C3E9C4508F030CC8585B1
:1027600096850897079708F02ACCE35BFF4F808196
:1027700091810897079708F022CC81E080934A0462
:1027800080914F049091500490932B0480932A04DD
:10279000809153049091540490932D0480932C04C1
:1027A00085E090E0DBCAE0914B04F0914C04128587
:1027B000812F8F7D843419F0163009F07EC088E2B5
:1027C00091E00E943B08882309F477C01630B1F4E9
:1027D00081E080934A0480914F049091500490933B
:1027E0002B0480932A048091530490915404909375
:1027F0002D0480932C0485E190E0B0CA43E060E2B0
:1028000088E291E00E942308882309F456C01091C1
:1028100032040091330490913004809131049093FC
:102820002A0480932B04E0914B04F0914C048285A0
:10283000843651F543E460E188E291E00E94230888
:102840008823D9F1809130049091310400951017BC
:1028500031F09095981719F094E090934A04982FCE
:10286000812F90932D0480932C0480E390E090932B
:1028700049048093480484E190E090932904809374
:1028800028048EEB9AE026CB802F809518130FC07A
:10289000812F90E090932D0480932C0480E290E0AF
:1028A000909349048093480483E190E0E6CFC80107
:1028B00090932C0480932D04F1CFE0914B04F09180
:1028C0004C048285843279F58CE391E00E943B08C8
:1028D000882349F143E060E18CE391E00E94230802
:1028E000882309F1109130048091310480951817E4
:1028F00019F084E080934A048DE692E00E94E70399
:10290000812F90E090932D0480932C0410922B043F
:1029100010922A0480E190E0909349048093480447
:102920008DE190E01BCAE0914B04F0914C0482854C
:102930008434D1F480E591E00E943B088823A1F023
:1029400043E060E280E591E00E942308882361F083
:1029500080E880934A0480E290E090934904809359
:1029600048048CE190E0FAC984E691E00E943B08BB
:10297000E0914B04F0914C049285882309F455C0F2
:10298000943209F052C043E060E184E691E00E9495
:102990002308882309F449C0E0914B04F0914C04CA
:1029A000DF01AF5ABF4F8D919C9102970497E8F5D4
:1029B00080E880934A043091300420913104832FC1
:1029C000922F422F42954F702F70A4E096958795D5
:1029D000AA95E1F78F703F709FE094279227982780
:1029E000391719F094E890934A0490914A0463854A
:1029F0007485683F714118F4926090934A04409343
:102A00002A0410922B0450E1259F90011124282BB9
:102A100030932D0420932C0480E190E0909349049E
:102A2000809348048AE190E099C988E791E00E9488
:102A30003B08E0914B04F0914C049285882381F18E
:102A4000943271F543E060E188E791E00E94230849
:102A5000882331F1E0914B04F0914C04EF5AFF4F81
:102A60008081918108970797D8F4809130049091E4
:102A7000310498279F3FA1F490E090932D04809318
:102A80002C0480E190E0909349048093480489E10C
:102A900090E0909329048093280488ED94E01ACA6A
:102AA000E0914B04F0914C048285803709F059C0C5
:102AB00041E068E08CE891E00E942308882309F453
:102AC00050C08091300490913104A0913204B091B3
:102AD0003304892B8A2B8B2B09F043C041E16FE132
:102AE0008CE891E00E9423088823D9F1C09030043B
:102AF000D0903104E0903204F09033044FE461E16F
:102B00008CE891E00E942308882359F190913104C8
:102B10008091320489279827892790932D048093E8
:102B20002C04C0923004D0923104E0923204F0922E
:102B30003304D0922B04C0922A04F0922F04E09226
:102B40002E048BE190E0909329048093280488E37D
:102B500090E0909349048093480480E880934A046D
:102B60002ECAA0914B04B0914C041A968C911A97DE
:102B7000843108F429C182E3F10111928A95E9F7C1
:102B80001A962C911A972250330B60E043E0842F61
:102B900090E082179307BCF4880F991FFD01E80F9E
:102BA000F91F838594858233910508F00DC1F101E9
:102BB000E80FF91F50815F5F50836817190608F40A
:102BC000682F4E5FE4CF1EAA1DAA9E012B5C3F4FCB
:102BD000AE014A5C5F4FC1010E94160C882309F4C4
:102BE000F3C082E3F10111928A95E9F7A0914B04B9
:102BF000B0914C041A962C911A972250330B60E036
:102C000044E0842F90E082179307BCF4880F991F4B
:102C1000FD01E80FF91F838594858233910508F043
:102C2000D3C0F101E80FF91F50815F5F508368172F
:102C3000190608F4682F4E5FE4CF1CAA1BAA9E0158
:102C40002D5C3F4FAE014C5C5F4FC1010E94160CE2
:102C5000882309F4B9C0E0914B04F0914C048285BB
:102C600086958150990BCBA88DA89C0121503109E4
:102C7000CC2019F0811001C0C901909349048093C0
:102C800048049C012150310945E0369527954A9525
:102C9000E1F72FAB811003C0CC2009F495C06CA8DC
:102CA00092E3699E30011124AEA8A99E500111241F
:102CB000899E40011124C99E60011124F82E93E0E1
:102CC000492E512C8F2DF0E2FF1508F480E29DA9CA
:102CD000992309F465C021E030E030932904209362
:102CE0002804E12C83019501A401642D0E94810731
:102CF000882309F469C024E0529EF0011124E05CAD
:102D0000FB4F8091300490913104A0913204B09136
:102D1000330480839183A283B38330E4430E5394BE
:102D200050EEF50E8FA9851568F680ED97E00E94AC
:102D3000E703E0914B04F0914C044585568582E30E
:102D4000849F9001859F300D11243093350420938A
:102D5000340447855089849F9001859F300D11244C
:102D60003093370420933604B0923D04A0923C0483
:102D700070923F0460923E0481149104E1F09092BD
:102D800039048092380470923B0460923A04C11472
:102D9000D10409F414C9D0923F04C0923E040FC973
:102DA000E2E0F0E0F0932904E0932804E12C8601AE
:102DB0009501A5019ACFB0923904A0923804D0921F
:102DC0003B04C0923A04FBC8E0904B04F0904C04E2
:102DD000F7010285063008F4F2C8DD24D39425EC0F
:102DE0003DE94CE151E810E08AE0C82E8D2D90E0DD
:102DF000BC016E5F7F4F60177107DCF5660F771FB0
:102E0000F701E60FF71F63857485880F991FF70197
:102E1000E80FF91F83859485C69ED001C79EB00D2B
:102E20001124FC01EE0FFF1FEE0FFF1FEE0FFF1F1F
:102E3000AE17BF07D0F0C89EF001C99EF00D112457
:102E4000CB01B3E0880F991FBA95E1F7E817F907AE
:102E500070F4E2E063E971E080E091E00E94A9197A
:102E60009B01AC012E27D394C1CFE0E0F3CFE1E08A
:102E7000F1CF2093300430933104409332045093C7
:102E8000330480E290E090934904809348041092C8
:102E900029041092280493C884EC94E00E940D0643
:102EA000E0912804F0912904EE0FFF1FE952FB4F37
:102EB000859194910E940D06809128049091290497
:102EC000009701F58BEB94E00E940D0660913004B1
:102ED00070913104809132049091330440E10E945A
:102EE000790880E20E942806E0914B04F0914C049E
:102EF000828590E00196969587950E94DF0886E985
:102F000094E063C801970297C0F18AE894E00E94B8
:102F10000D0660E170E080912A0490912B040E94DC
:102F2000BD088EE794E00E940D0660E170E080919C
:102F30002C0490912D040E94BD0880914A0484FFC6
:102F40000CC084E794E00E940D0660E170E080917F
:102F50002E0490912F040E94BD0880914A0482FFA4
:102F600004C087E694E00E940D0680914A0483FF26
:102F700004C08DE594E00E940D0680914A048370A0
:102F800021F180E20E94280680914A0481FF04C05A
:102F900087E594E00E940D0680E594E00E940D060E
:102FA0008AE494E00E940D06E0914B04F0914C04F9
:102FB00023853485A2E3B0E00E940D1A4AE00E9406
:102FC000790887E494E00E940D0680914A0480FF0E
:102FD0000CC08091300490913104A0913204B091E2
:102FE0003304892B8A2B8B2B51F18AE394E00E94C6
:102FF0000D066091300470913104809132049091FB
:10300000330440E10E94790880E20E9428066AE0C9
:1030100070E080914804909149040E94BD0884E3C7
:1030200094E00E940D0680914A0487FF04C089E263
:1030300094E00C94E50F8EE194E00C94E50F0E946F
:10304000C3080C94E70F60E170E080912A0490912E
:103050002B040E94BD0876C884E895E00E940D0606
:1030600090C88EE092E00E946C08F2E081E292E06B
:10307000BF1611F08AE292E00E946C086AE070E0EC
:1030800080913404909135040E94BD088FE195E051
:103090000E940D066AE070E080913604909137043A
:1030A0000E94BD088CE195E00E940D066AE070E088
:1030B00080913804909139040E94BD0889E195E01F
:1030C0000E940D066AE070E080913A0490913B0402
:1030D0000E94BD0886E195E00E940D066AE070E05E
:1030E00080913C0490913D040E94BD0883E195E0ED
:1030F0000E940D066AE070E080913E0490913F04CA
:103100000E94BD0822E083E795E0B21689F08EE6C2
:1031100095E00E940D066091300470913104809119
:1031200032049091330440E10E9479088BE695E0E7
:103130000E940D066AE070E0809148049091490475
:103140000E94BD088CE595E00E940D0680914A041E
:1031500087FF06C08DE40E9428068AE295E07ECFB4
:103160008CE4F9CF89EE95E00E940D068DC80E948F
:10317000C30880E392E00E946C089601A2E3B0E0ED
:103180000E940D1A4AE00E9479080E94C3080E941A
:10319000C30880913203833011F41092320380917E
:1031A0002C0490912D048831910509F479C0E8F43C
:1031B0008830910509F48FC0469709F4A7C065E0EF
:1031C00070E080E090E00E94ED0480E090E0892BC8
:1031D00011F40C94E70D0E948A05882311F40C94D5
:1031E000E70D0E9400000C94E70D82359105E9F18E
:1031F0008A359105E9F04C9711F764EB70E08DE1A9
:1032000094E00E944D066EE970E080E090E00E943C
:10321000ED046AE570E08DE194E00E944D0665E002
:1032200070E080E090E00E94ED0489E492E01AC032
:1032300070E060E083E294E00E944D0666E970E091
:1032400080E090E00E94ED046AE570E083E294E0A3
:103250000E944D0665E070E080E090E00E94ED0481
:1032600086E392E00E94D308AACF6091F0017091AA
:10327000F1016B3071050CF4A2CF685071097093A5
:10328000F1016093F00180E294E00E944D0662E358
:1032900070E080E090E00E94ED048CE392E0E2CFE9
:1032A0006091F0017091F1016F3A71050CF087CFD8
:1032B000685F7F4F7093F1016093F00180E294E0CA
:1032C0000E944D0662E370E080E090E00E94ED0411
:1032D0008FE392E0C7CF64EB70E083E294E00E945A
:1032E0004D0666E970E080E090E00E94ED046AE53A
:1032F00070E083E294E00E944D0665E070E080E0BB
:1033000090E00E94ED0484E492E0ACCF64EB70E0C6
:103310008DE194E00E944D0664EB73E080E090E064
:103320000E94ED046AE570E08DE194E00E944D0694
:1033300065E070E080E090E00E94ED0480E592E0BE
:103340000E94D30862E370E080E090E00E94ED0408
:1033500036CFDB018F939F930E94FA19BF91AF91F3
:10336000A29F800D911DA39F900DB29F900D1124DF
:103370000895A1E21A2EAA1BBB1BFD010DC0AA1FB6
:10338000BB1FEE1FFF1FA217B307E407F50720F0CE
:10339000A21BB30BE40BF50B661F771F881F991F49
:1033A0001A9469F760957095809590959B01AC0192
:1033B000BD01CF010895052E97FB1EF400940E94D5
:1033C000F21957FD07D00E94B91907FC03D04EF43B
:1033D0000C94F21950954095309521953F4F4F4FE1
:1033E0005F4F089590958095709561957F4F8F4FB1
:1033F0009F4F08950E940D1AA59F900DB49F900DA8
:10340000A49F800D911D11240895B7FF0C94FA1903
:103410000E94FA19821B930B0895A29FB001B39FDB
:10342000C001A39F700D811D1124911DB29F700DCD
:10343000811D1124911D0895991B79E004C0991FE5
:10344000961708F0961B881F7A95C9F780950895FE
:10345000AA1BBB1B51E107C0AA1FBB1FA617B707BA
:1034600010F0A61BB70B881F991F5A95A9F78095D6
:103470009095BC01CD010895EE0FFF1F0590F491CA
:10348000E02D0994F894FFCF06002628236810F455
:10349000012C06F4012602806E00E109050026E0F9
:1034A0002070100E022A060E020E020041000000DB
:1034B0001300268011801130029006300230020085
:1034C0006E00BE091D002638081C040E022A060ED6
:1034D000020E0200320000001C0026220B220BEE1E
:1034E000026608EE02EE02806E0000001A00269EC0
:1034F0000002049E0029029E000701006E000000E9
:10350000190026F603BC050802BC050802D4010018
:103510004B0000001B00261F015D033E023E021F00
:10352000015D03806E00000017002860095802B09A
:1035300004580258025802002D000000040026041E
:10354000010C0304011C0704010C03006E000000C1
:103550000C0025800DC006B0011005B001B00100BF
:1035600082000000080026002380113002900630FF
:10357000023002006E00E109640000000000C00596
:1035800020054D052D067E055C0570050D0A0048D9
:103590004F4D494E470050756C73654469737461B3
:1035A0006E636557696474680046726F6D4172722C
:1035B00061792833382C200053756D3A2000524928
:1035C00047485400555000444F574E004C45465410
:1035D00000464952494E4700464952494E4720410C
:0435E0004C4C00004F
:107E0000112484B714BE81FFF0D085E080938100F7
:107E100082E08093C00088E18093C10086E0809377
:107E2000C20080E18093C4008EE0C9D0259A86E02C
:107E300020E33CEF91E0309385002093840096BBD3
:107E4000B09BFECF1D9AA8958150A9F7CC24DD24C4
:107E500088248394B5E0AB2EA1E19A2EF3E0BF2EE7
:107E6000A2D0813461F49FD0082FAFD0023811F036
:107E7000013811F484E001C083E08DD089C08234E0
:107E800011F484E103C0853419F485E0A6D080C0E4
:107E9000853579F488D0E82EFF2485D0082F10E0AE
:107EA000102F00270E291F29000F111F8ED06801E7
:107EB0006FC0863521F484E090D080E0DECF843638
:107EC00009F040C070D06FD0082F6DD080E0C81688
:107ED00080E7D80618F4F601B7BEE895C0E0D1E017
:107EE00062D089930C17E1F7F0E0CF16F0E7DF06D8
:107EF00018F0F601B7BEE89568D007B600FCFDCFD4
:107F0000A601A0E0B1E02C9130E011968C91119780
:107F100090E0982F8827822B932B1296FA010C0160
:107F200087BEE89511244E5F5F4FF1E0A038BF0790
:107F300051F7F601A7BEE89507B600FCFDCF97BE46
:107F4000E89526C08437B1F42ED02DD0F82E2BD052
:107F50003CD0F601EF2C8F010F5F1F4F84911BD097
:107F6000EA94F801C1F70894C11CD11CFA94CF0C13
:107F7000D11C0EC0853739F428D08EE10CD085E9AC
:107F80000AD08FE07ACF813511F488E018D01DD067
:107F900080E101D065CF982F8091C00085FFFCCF94
:107FA0009093C60008958091C00087FFFCCF809118
:107FB000C00084FD01C0A8958091C6000895E0E648
:107FC000F0E098E1908380830895EDDF803219F02E
:107FD00088E0F5DFFFCF84E1DECF1F93182FE3DFCA
:107FE0001150E9F7F2DF1F91089580E0E8DFEE27F6
:047FF000FF270994CA
:027FFE00040479
:00000001FF
